{
  "_format": "hh-sol-artifact-1",
  "contractName": "ERC1155OnChain",
  "sourceName": "contracts/schain/tokens/ERC1155OnChain.sol",
  "abi": [
    {
      "inputs": [
        {
          "internalType": "string",
          "name": "uri",
          "type": "string"
        }
      ],
      "stateMutability": "nonpayable",
      "type": "constructor"
    },
    {
      "anonymous": false,
      "inputs": [
        {
          "indexed": true,
          "internalType": "address",
          "name": "account",
          "type": "address"
        },
        {
          "indexed": true,
          "internalType": "address",
          "name": "operator",
          "type": "address"
        },
        {
          "indexed": false,
          "internalType": "bool",
          "name": "approved",
          "type": "bool"
        }
      ],
      "name": "ApprovalForAll",
      "type": "event"
    },
    {
      "anonymous": false,
      "inputs": [
        {
          "indexed": false,
          "internalType": "uint8",
          "name": "version",
          "type": "uint8"
        }
      ],
      "name": "Initialized",
      "type": "event"
    },
    {
      "anonymous": false,
      "inputs": [
        {
          "indexed": true,
          "internalType": "bytes32",
          "name": "role",
          "type": "bytes32"
        },
        {
          "indexed": true,
          "internalType": "bytes32",
          "name": "previousAdminRole",
          "type": "bytes32"
        },
        {
          "indexed": true,
          "internalType": "bytes32",
          "name": "newAdminRole",
          "type": "bytes32"
        }
      ],
      "name": "RoleAdminChanged",
      "type": "event"
    },
    {
      "anonymous": false,
      "inputs": [
        {
          "indexed": true,
          "internalType": "bytes32",
          "name": "role",
          "type": "bytes32"
        },
        {
          "indexed": true,
          "internalType": "address",
          "name": "account",
          "type": "address"
        },
        {
          "indexed": true,
          "internalType": "address",
          "name": "sender",
          "type": "address"
        }
      ],
      "name": "RoleGranted",
      "type": "event"
    },
    {
      "anonymous": false,
      "inputs": [
        {
          "indexed": true,
          "internalType": "bytes32",
          "name": "role",
          "type": "bytes32"
        },
        {
          "indexed": true,
          "internalType": "address",
          "name": "account",
          "type": "address"
        },
        {
          "indexed": true,
          "internalType": "address",
          "name": "sender",
          "type": "address"
        }
      ],
      "name": "RoleRevoked",
      "type": "event"
    },
    {
      "anonymous": false,
      "inputs": [
        {
          "indexed": true,
          "internalType": "address",
          "name": "operator",
          "type": "address"
        },
        {
          "indexed": true,
          "internalType": "address",
          "name": "from",
          "type": "address"
        },
        {
          "indexed": true,
          "internalType": "address",
          "name": "to",
          "type": "address"
        },
        {
          "indexed": false,
          "internalType": "uint256[]",
          "name": "ids",
          "type": "uint256[]"
        },
        {
          "indexed": false,
          "internalType": "uint256[]",
          "name": "values",
          "type": "uint256[]"
        }
      ],
      "name": "TransferBatch",
      "type": "event"
    },
    {
      "anonymous": false,
      "inputs": [
        {
          "indexed": true,
          "internalType": "address",
          "name": "operator",
          "type": "address"
        },
        {
          "indexed": true,
          "internalType": "address",
          "name": "from",
          "type": "address"
        },
        {
          "indexed": true,
          "internalType": "address",
          "name": "to",
          "type": "address"
        },
        {
          "indexed": false,
          "internalType": "uint256",
          "name": "id",
          "type": "uint256"
        },
        {
          "indexed": false,
          "internalType": "uint256",
          "name": "value",
          "type": "uint256"
        }
      ],
      "name": "TransferSingle",
      "type": "event"
    },
    {
      "anonymous": false,
      "inputs": [
        {
          "indexed": false,
          "internalType": "string",
          "name": "value",
          "type": "string"
        },
        {
          "indexed": true,
          "internalType": "uint256",
          "name": "id",
          "type": "uint256"
        }
      ],
      "name": "URI",
      "type": "event"
    },
    {
      "inputs": [],
      "name": "DEFAULT_ADMIN_ROLE",
      "outputs": [
        {
          "internalType": "bytes32",
          "name": "",
          "type": "bytes32"
        }
      ],
      "stateMutability": "view",
      "type": "function"
    },
    {
      "inputs": [],
      "name": "MINTER_ROLE",
      "outputs": [
        {
          "internalType": "bytes32",
          "name": "",
          "type": "bytes32"
        }
      ],
      "stateMutability": "view",
      "type": "function"
    },
    {
      "inputs": [
        {
          "internalType": "address",
          "name": "account",
          "type": "address"
        },
        {
          "internalType": "uint256",
          "name": "id",
          "type": "uint256"
        }
      ],
      "name": "balanceOf",
      "outputs": [
        {
          "internalType": "uint256",
          "name": "",
          "type": "uint256"
        }
      ],
      "stateMutability": "view",
      "type": "function"
    },
    {
      "inputs": [
        {
          "internalType": "address[]",
          "name": "accounts",
          "type": "address[]"
        },
        {
          "internalType": "uint256[]",
          "name": "ids",
          "type": "uint256[]"
        }
      ],
      "name": "balanceOfBatch",
      "outputs": [
        {
          "internalType": "uint256[]",
          "name": "",
          "type": "uint256[]"
        }
      ],
      "stateMutability": "view",
      "type": "function"
    },
    {
      "inputs": [
        {
          "internalType": "address",
          "name": "account",
          "type": "address"
        },
        {
          "internalType": "uint256",
          "name": "id",
          "type": "uint256"
        },
        {
          "internalType": "uint256",
          "name": "value",
          "type": "uint256"
        }
      ],
      "name": "burn",
      "outputs": [],
      "stateMutability": "nonpayable",
      "type": "function"
    },
    {
      "inputs": [
        {
          "internalType": "address",
          "name": "account",
          "type": "address"
        },
        {
          "internalType": "uint256[]",
          "name": "ids",
          "type": "uint256[]"
        },
        {
          "internalType": "uint256[]",
          "name": "values",
          "type": "uint256[]"
        }
      ],
      "name": "burnBatch",
      "outputs": [],
      "stateMutability": "nonpayable",
      "type": "function"
    },
    {
      "inputs": [
        {
          "internalType": "bytes32",
          "name": "role",
          "type": "bytes32"
        }
      ],
      "name": "getRoleAdmin",
      "outputs": [
        {
          "internalType": "bytes32",
          "name": "",
          "type": "bytes32"
        }
      ],
      "stateMutability": "view",
      "type": "function"
    },
    {
      "inputs": [
        {
          "internalType": "bytes32",
          "name": "role",
          "type": "bytes32"
        },
        {
          "internalType": "uint256",
          "name": "index",
          "type": "uint256"
        }
      ],
      "name": "getRoleMember",
      "outputs": [
        {
          "internalType": "address",
          "name": "",
          "type": "address"
        }
      ],
      "stateMutability": "view",
      "type": "function"
    },
    {
      "inputs": [
        {
          "internalType": "bytes32",
          "name": "role",
          "type": "bytes32"
        }
      ],
      "name": "getRoleMemberCount",
      "outputs": [
        {
          "internalType": "uint256",
          "name": "",
          "type": "uint256"
        }
      ],
      "stateMutability": "view",
      "type": "function"
    },
    {
      "inputs": [
        {
          "internalType": "bytes32",
          "name": "role",
          "type": "bytes32"
        },
        {
          "internalType": "address",
          "name": "account",
          "type": "address"
        }
      ],
      "name": "grantRole",
      "outputs": [],
      "stateMutability": "nonpayable",
      "type": "function"
    },
    {
      "inputs": [
        {
          "internalType": "bytes32",
          "name": "role",
          "type": "bytes32"
        },
        {
          "internalType": "address",
          "name": "account",
          "type": "address"
        }
      ],
      "name": "hasRole",
      "outputs": [
        {
          "internalType": "bool",
          "name": "",
          "type": "bool"
        }
      ],
      "stateMutability": "view",
      "type": "function"
    },
    {
      "inputs": [
        {
          "internalType": "address",
          "name": "account",
          "type": "address"
        },
        {
          "internalType": "address",
          "name": "operator",
          "type": "address"
        }
      ],
      "name": "isApprovedForAll",
      "outputs": [
        {
          "internalType": "bool",
          "name": "",
          "type": "bool"
        }
      ],
      "stateMutability": "view",
      "type": "function"
    },
    {
      "inputs": [
        {
          "internalType": "address",
          "name": "account",
          "type": "address"
        },
        {
          "internalType": "uint256",
          "name": "id",
          "type": "uint256"
        },
        {
          "internalType": "uint256",
          "name": "amount",
          "type": "uint256"
        },
        {
          "internalType": "bytes",
          "name": "data",
          "type": "bytes"
        }
      ],
      "name": "mint",
      "outputs": [],
      "stateMutability": "nonpayable",
      "type": "function"
    },
    {
      "inputs": [
        {
          "internalType": "address",
          "name": "account",
          "type": "address"
        },
        {
          "internalType": "uint256[]",
          "name": "ids",
          "type": "uint256[]"
        },
        {
          "internalType": "uint256[]",
          "name": "amounts",
          "type": "uint256[]"
        },
        {
          "internalType": "bytes",
          "name": "data",
          "type": "bytes"
        }
      ],
      "name": "mintBatch",
      "outputs": [],
      "stateMutability": "nonpayable",
      "type": "function"
    },
    {
      "inputs": [
        {
          "internalType": "bytes32",
          "name": "role",
          "type": "bytes32"
        },
        {
          "internalType": "address",
          "name": "account",
          "type": "address"
        }
      ],
      "name": "renounceRole",
      "outputs": [],
      "stateMutability": "nonpayable",
      "type": "function"
    },
    {
      "inputs": [
        {
          "internalType": "bytes32",
          "name": "role",
          "type": "bytes32"
        },
        {
          "internalType": "address",
          "name": "account",
          "type": "address"
        }
      ],
      "name": "revokeRole",
      "outputs": [],
      "stateMutability": "nonpayable",
      "type": "function"
    },
    {
      "inputs": [
        {
          "internalType": "address",
          "name": "from",
          "type": "address"
        },
        {
          "internalType": "address",
          "name": "to",
          "type": "address"
        },
        {
          "internalType": "uint256[]",
          "name": "ids",
          "type": "uint256[]"
        },
        {
          "internalType": "uint256[]",
          "name": "amounts",
          "type": "uint256[]"
        },
        {
          "internalType": "bytes",
          "name": "data",
          "type": "bytes"
        }
      ],
      "name": "safeBatchTransferFrom",
      "outputs": [],
      "stateMutability": "nonpayable",
      "type": "function"
    },
    {
      "inputs": [
        {
          "internalType": "address",
          "name": "from",
          "type": "address"
        },
        {
          "internalType": "address",
          "name": "to",
          "type": "address"
        },
        {
          "internalType": "uint256",
          "name": "id",
          "type": "uint256"
        },
        {
          "internalType": "uint256",
          "name": "amount",
          "type": "uint256"
        },
        {
          "internalType": "bytes",
          "name": "data",
          "type": "bytes"
        }
      ],
      "name": "safeTransferFrom",
      "outputs": [],
      "stateMutability": "nonpayable",
      "type": "function"
    },
    {
      "inputs": [
        {
          "internalType": "address",
          "name": "operator",
          "type": "address"
        },
        {
          "internalType": "bool",
          "name": "approved",
          "type": "bool"
        }
      ],
      "name": "setApprovalForAll",
      "outputs": [],
      "stateMutability": "nonpayable",
      "type": "function"
    },
    {
      "inputs": [
        {
          "internalType": "bytes4",
          "name": "interfaceId",
          "type": "bytes4"
        }
      ],
      "name": "supportsInterface",
      "outputs": [
        {
          "internalType": "bool",
          "name": "",
          "type": "bool"
        }
      ],
      "stateMutability": "view",
      "type": "function"
    },
    {
      "inputs": [
        {
          "internalType": "uint256",
          "name": "",
          "type": "uint256"
        }
      ],
      "name": "uri",
      "outputs": [
        {
          "internalType": "string",
          "name": "",
          "type": "string"
        }
      ],
      "stateMutability": "view",
      "type": "function"
    }
  ],
  "bytecode": "0x608060405234801561001057600080fd5b50604051612be5380380612be583398101604081905261002f9161045d565b600054610100900460ff161580801561004f5750600054600160ff909116105b806100695750303b158015610069575060005460ff166001145b6100d15760405162461bcd60e51b815260206004820152602e60248201527f496e697469616c697a61626c653a20636f6e747261637420697320616c72656160448201526d191e481a5b9a5d1a585b1a5e995960921b60648201526084015b60405180910390fd5b6000805460ff1916600117905580156100f4576000805461ff0019166101001790555b6100fc61018a565b610105826101e5565b61010d61018a565b610125600080516020612bc58339815191528061024a565b61013d600080516020612bc583398151915233610295565b8015610183576000805461ff0019169055604051600181527f7f26b83ff96e1f2b6a682f133852f6798a09c465da95921460cefb38474024989060200160405180910390a15b505061066f565b600054610100900460ff166101e35760405162461bcd60e51b815260206004820152602b6024820152600080516020612ba583398151915260448201526a6e697469616c697a696e6760a81b60648201526084016100c8565b565b600054610100900460ff1661023e5760405162461bcd60e51b815260206004820152602b6024820152600080516020612ba583398151915260448201526a6e697469616c697a696e6760a81b60648201526084016100c8565b610247816102a3565b50565b600082815260656020526040808220600101805490849055905190918391839186917fbd79b86ffe0ab8e8776151514217cd7cacd52c909f66475c3af44e129f0b00ff9190a4505050565b61029f8282610305565b5050565b600054610100900460ff166102fc5760405162461bcd60e51b815260206004820152602b6024820152600080516020612ba583398151915260448201526a6e697469616c697a696e6760a81b60648201526084016100c8565b6102478161032c565b61030f8282610338565b600082815260976020526040902061032790826103da565b505050565b60cb61029f82826105b1565b60008281526065602090815260408083206001600160a01b038516845290915290205460ff1661029f5760008281526065602090815260408083206001600160a01b03851684529091529020805460ff191660011790556103963390565b6001600160a01b0316816001600160a01b0316837f2f8788117e7eff1d82e926ec794901d17c78024a50270940304540a733656f0d60405160405180910390a45050565b60006103ef836001600160a01b0384166103f8565b90505b92915050565b600081815260018301602052604081205461043f575081546001818101845560008481526020808220909301849055845484825282860190935260409020919091556103f2565b5060006103f2565b634e487b7160e01b600052604160045260246000fd5b60006020828403121561046f57600080fd5b81516001600160401b0381111561048557600080fd5b8201601f8101841361049657600080fd5b80516001600160401b038111156104af576104af610447565b604051601f8201601f19908116603f011681016001600160401b03811182821017156104dd576104dd610447565b6040528181528282016020018610156104f557600080fd5b60005b82811015610514576020818501810151838301820152016104f8565b50600091810160200191909152949350505050565b600181811c9082168061053d57607f821691505b60208210810361055d57634e487b7160e01b600052602260045260246000fd5b50919050565b601f82111561032757806000526020600020601f840160051c8101602085101561058a5750805b601f840160051c820191505b818110156105aa5760008155600101610596565b5050505050565b81516001600160401b038111156105ca576105ca610447565b6105de816105d88454610529565b84610563565b6020601f82116001811461061257600083156105fa5750848201515b600019600385901b1c1916600184901b1784556105aa565b600084815260208120601f198516915b828110156106425787850151825560209485019460019092019101610622565b50848210156106605786840151600019600387901b60f8161c191681555b50505050600190811b01905550565b6125278061067e6000396000f3fe608060405234801561001057600080fd5b50600436106101365760003560e01c8063731133e9116100b8578063ca15c8731161007c578063ca15c873146102b4578063d5391393146102c7578063d547741f146102ee578063e985e9c514610301578063f242432a1461033d578063f5298aca1461035057600080fd5b8063731133e9146102485780639010d07c1461025b57806391d1485414610286578063a217fddf14610299578063a22cb465146102a157600080fd5b80632eb2c2d6116100ff5780632eb2c2d6146101dc5780632f2ff15d146101ef57806336568abe146102025780634e1273f4146102155780636b20c4541461023557600080fd5b8062fdd58e1461013b57806301ffc9a7146101615780630e89341c146101845780631f7fdffa146101a4578063248a9ca3146101b9575b600080fd5b61014e610149366004611957565b610363565b6040519081526020015b60405180910390f35b61017461016f366004611997565b6103fe565b6040519015158152602001610158565b6101976101923660046119b4565b610409565b6040516101589190611a1d565b6101b76101b2366004611b7c565b61049d565b005b61014e6101c73660046119b4565b60009081526065602052604090206001015490565b6101b76101ea366004611c1e565b61051e565b6101b76101fd366004611cd1565b61056a565b6101b7610210366004611cd1565b610594565b610228610223366004611cfd565b610612565b6040516101589190611e0c565b6101b7610243366004611e1f565b610733565b6101b7610256366004611e96565b610776565b61026e610269366004611ede565b6107f1565b6040516001600160a01b039091168152602001610158565b610174610294366004611cd1565b610810565b61014e600081565b6101b76102af366004611f00565b61083b565b61014e6102c23660046119b4565b610846565b61014e7f9f2df0fed2c77648de5860a4cc508cd0818c85b8b8a1ab4ceeef8d981c8956a681565b6101b76102fc366004611cd1565b61085d565b61017461030f366004611f3c565b6001600160a01b03918216600090815260ca6020908152604080832093909416825291909152205460ff1690565b6101b761034b366004611f66565b610882565b6101b761035e366004611fbe565b6108c7565b60006001600160a01b0383166103d35760405162461bcd60e51b815260206004820152602a60248201527f455243313135353a2061646472657373207a65726f206973206e6f742061207660448201526930b634b21037bbb732b960b11b60648201526084015b60405180910390fd5b50600081815260c9602090815260408083206001600160a01b03861684529091529020545b92915050565b60006103f88261090a565b606060cb805461041890611ff1565b80601f016020809104026020016040519081016040528092919081815260200182805461044490611ff1565b80156104915780601f1061046657610100808354040283529160200191610491565b820191906000526020600020905b81548152906001019060200180831161047457829003601f168201915b50505050509050919050565b6104c77f9f2df0fed2c77648de5860a4cc508cd0818c85b8b8a1ab4ceeef8d981c8956a633610810565b61050c5760405162461bcd60e51b815260206004820152601660248201527529b2b73232b91034b9903737ba10309026b4b73a32b960511b60448201526064016103ca565b6105188484848461094a565b50505050565b6001600160a01b03851633148061053a575061053a853361030f565b6105565760405162461bcd60e51b81526004016103ca9061202b565b6105638585858585610a8b565b5050505050565b60008281526065602052604090206001015461058581610c23565b61058f8383610c30565b505050565b6001600160a01b03811633146106045760405162461bcd60e51b815260206004820152602f60248201527f416363657373436f6e74726f6c3a2063616e206f6e6c792072656e6f756e636560448201526e103937b632b9903337b91039b2b63360891b60648201526084016103ca565b61060e8282610c52565b5050565b606081518351146106775760405162461bcd60e51b815260206004820152602960248201527f455243313135353a206163636f756e747320616e6420696473206c656e677468604482015268040dad2e6dac2e8c6d60bb1b60648201526084016103ca565b600083516001600160401b0381111561069257610692611a30565b6040519080825280602002602001820160405280156106bb578160200160208202803683370190505b50905060005b845181101561072b576107068582815181106106df576106df61207a565b60200260200101518583815181106106f9576106f961207a565b6020026020010151610363565b8282815181106107185761071861207a565b60209081029190910101526001016106c1565b509392505050565b6001600160a01b03831633148061074f575061074f833361030f565b61076b5760405162461bcd60e51b81526004016103ca9061202b565b61058f838383610c74565b6107a07f9f2df0fed2c77648de5860a4cc508cd0818c85b8b8a1ab4ceeef8d981c8956a633610810565b6107e55760405162461bcd60e51b815260206004820152601660248201527529b2b73232b91034b9903737ba10309026b4b73a32b960511b60448201526064016103ca565b61051884848484610df7565b60008281526097602052604081206108099083610ed3565b9392505050565b60009182526065602090815260408084206001600160a01b0393909316845291905290205460ff1690565b61060e338383610edf565b60008181526097602052604081206103f890610fbf565b60008281526065602052604090206001015461087881610c23565b61058f8383610c52565b6001600160a01b03851633148061089e575061089e853361030f565b6108ba5760405162461bcd60e51b81526004016103ca9061202b565b6105638585858585610fc9565b6001600160a01b0383163314806108e357506108e3833361030f565b6108ff5760405162461bcd60e51b81526004016103ca9061202b565b61058f8383836110f7565b60006001600160e01b03198216636cdb3d1360e11b148061093b57506001600160e01b031982166303a24d0760e21b145b806103f857506103f8826111fe565b6001600160a01b0384166109705760405162461bcd60e51b81526004016103ca90612090565b81518351146109915760405162461bcd60e51b81526004016103ca906120d1565b3360005b8451811015610a23578381815181106109b0576109b061207a565b602002602001015160c960008784815181106109ce576109ce61207a565b602002602001015181526020019081526020016000206000886001600160a01b03166001600160a01b031681526020019081526020016000206000828254610a16919061212f565b9091555050600101610995565b50846001600160a01b031660006001600160a01b0316826001600160a01b03167f4a39dc06d4c0dbc64b70af90fd698a233a518aa5d07e595d983b8c0526c8f7fb8787604051610a74929190612142565b60405180910390a461056381600087878787611223565b8151835114610aac5760405162461bcd60e51b81526004016103ca906120d1565b6001600160a01b038416610ad25760405162461bcd60e51b81526004016103ca90612170565b3360005b8451811015610bb5576000858281518110610af357610af361207a565b602002602001015190506000858381518110610b1157610b1161207a565b602090810291909101810151600084815260c9835260408082206001600160a01b038e168352909352919091205490915081811015610b625760405162461bcd60e51b81526004016103ca906121b5565b600083815260c9602090815260408083206001600160a01b038e8116855292528083208585039055908b16825281208054849290610ba190849061212f565b909155505060019093019250610ad6915050565b50846001600160a01b0316866001600160a01b0316826001600160a01b03167f4a39dc06d4c0dbc64b70af90fd698a233a518aa5d07e595d983b8c0526c8f7fb8787604051610c05929190612142565b60405180910390a4610c1b818787878787611223565b505050505050565b610c2d813361137e565b50565b610c3a82826113e2565b600082815260976020526040902061058f9082611468565b610c5c828261147d565b600082815260976020526040902061058f90826114e4565b6001600160a01b038316610c9a5760405162461bcd60e51b81526004016103ca906121ff565b8051825114610cbb5760405162461bcd60e51b81526004016103ca906120d1565b604080516020810190915260009081905233905b8351811015610d8a576000848281518110610cec57610cec61207a565b602002602001015190506000848381518110610d0a57610d0a61207a565b602090810291909101810151600084815260c9835260408082206001600160a01b038c168352909352919091205490915081811015610d5b5760405162461bcd60e51b81526004016103ca90612242565b600092835260c9602090815260408085206001600160a01b038b16865290915290922091039055600101610ccf565b5060006001600160a01b0316846001600160a01b0316826001600160a01b03167f4a39dc06d4c0dbc64b70af90fd698a233a518aa5d07e595d983b8c0526c8f7fb8686604051610ddb929190612142565b60405180910390a4604080516020810190915260009052610518565b6001600160a01b038416610e1d5760405162461bcd60e51b81526004016103ca90612090565b336000610e29856114f9565b90506000610e36856114f9565b9050600086815260c9602090815260408083206001600160a01b038b16845290915281208054879290610e6a90849061212f565b909155505060408051878152602081018790526001600160a01b03808a1692600092918716917fc3d58168c5ae7397731d063d5bbf3d657854427343f4c083240f7aacaa2d0f62910160405180910390a4610eca83600089898989611544565b50505050505050565b600061080983836115ff565b816001600160a01b0316836001600160a01b031603610f525760405162461bcd60e51b815260206004820152602960248201527f455243313135353a2073657474696e6720617070726f76616c20737461747573604482015268103337b91039b2b63360b91b60648201526084016103ca565b6001600160a01b03838116600081815260ca6020908152604080832094871680845294825291829020805460ff191686151590811790915591519182527f17307eab39ab6107e8899845ad3d59bd9653f200f220920489ca2b5937696c31910160405180910390a3505050565b60006103f8825490565b6001600160a01b038416610fef5760405162461bcd60e51b81526004016103ca90612170565b336000610ffb856114f9565b90506000611008856114f9565b9050600086815260c9602090815260408083206001600160a01b038c1684529091529020548581101561104d5760405162461bcd60e51b81526004016103ca906121b5565b600087815260c9602090815260408083206001600160a01b038d8116855292528083208985039055908a1682528120805488929061108c90849061212f565b909155505060408051888152602081018890526001600160a01b03808b16928c821692918816917fc3d58168c5ae7397731d063d5bbf3d657854427343f4c083240f7aacaa2d0f62910160405180910390a46110ec848a8a8a8a8a611544565b505050505050505050565b6001600160a01b03831661111d5760405162461bcd60e51b81526004016103ca906121ff565b336000611129846114f9565b90506000611136846114f9565b604080516020808201835260009182905288825260c981528282206001600160a01b038b16835290522054909150848110156111845760405162461bcd60e51b81526004016103ca90612242565b600086815260c9602090815260408083206001600160a01b038b81168086529184528285208a8703905582518b81529384018a90529092908816917fc3d58168c5ae7397731d063d5bbf3d657854427343f4c083240f7aacaa2d0f62910160405180910390a4604080516020810190915260009052610eca565b60006001600160e01b03198216635a05180f60e01b14806103f857506103f882611629565b6001600160a01b0384163b15610c1b5760405163bc197c8160e01b81526001600160a01b0385169063bc197c81906112679089908990889088908890600401612286565b6020604051808303816000875af19250505080156112a2575060408051601f3d908101601f1916820190925261129f918101906122e4565b60015b61134e576112ae612301565b806308c379a0036112e757506112c261231d565b806112cd57506112e9565b8060405162461bcd60e51b81526004016103ca9190611a1d565b505b60405162461bcd60e51b815260206004820152603460248201527f455243313135353a207472616e7366657220746f206e6f6e20455243313135356044820152732932b1b2b4bb32b91034b6b83632b6b2b73a32b960611b60648201526084016103ca565b6001600160e01b0319811663bc197c8160e01b14610eca5760405162461bcd60e51b81526004016103ca90612398565b6113888282610810565b61060e576113a0816001600160a01b0316601461165e565b6113ab83602061165e565b6040516020016113bc9291906123e0565b60408051601f198184030181529082905262461bcd60e51b82526103ca91600401611a1d565b6113ec8282610810565b61060e5760008281526065602090815260408083206001600160a01b03851684529091529020805460ff191660011790556114243390565b6001600160a01b0316816001600160a01b0316837f2f8788117e7eff1d82e926ec794901d17c78024a50270940304540a733656f0d60405160405180910390a45050565b6000610809836001600160a01b0384166117f9565b6114878282610810565b1561060e5760008281526065602090815260408083206001600160a01b0385168085529252808320805460ff1916905551339285917ff6391f5c32d9c69d2a47ea670b442974b53935d1edc7fd64eb21e047a839171b9190a45050565b6000610809836001600160a01b038416611848565b604080516001808252818301909252606091600091906020808301908036833701905050905082816000815181106115335761153361207a565b602090810291909101015292915050565b6001600160a01b0384163b15610c1b5760405163f23a6e6160e01b81526001600160a01b0385169063f23a6e61906115889089908990889088908890600401612455565b6020604051808303816000875af19250505080156115c3575060408051601f3d908101601f191682019092526115c0918101906122e4565b60015b6115cf576112ae612301565b6001600160e01b0319811663f23a6e6160e01b14610eca5760405162461bcd60e51b81526004016103ca90612398565b60008260000182815481106116165761161661207a565b9060005260206000200154905092915050565b60006001600160e01b03198216637965db0b60e01b14806103f857506301ffc9a760e01b6001600160e01b03198316146103f8565b6060600061166d83600261249a565b61167890600261212f565b6001600160401b0381111561168f5761168f611a30565b6040519080825280601f01601f1916602001820160405280156116b9576020820181803683370190505b509050600360fc1b816000815181106116d4576116d461207a565b60200101906001600160f81b031916908160001a905350600f60fb1b816001815181106117035761170361207a565b60200101906001600160f81b031916908160001a905350600061172784600261249a565b61173290600161212f565b90505b60018111156117aa576f181899199a1a9b1b9c1cb0b131b232b360811b85600f16601081106117665761176661207a565b1a60f81b82828151811061177c5761177c61207a565b60200101906001600160f81b031916908160001a90535060049490941c936117a3816124b1565b9050611735565b5083156108095760405162461bcd60e51b815260206004820181905260248201527f537472696e67733a20686578206c656e67746820696e73756666696369656e7460448201526064016103ca565b6000818152600183016020526040812054611840575081546001818101845560008481526020808220909301849055845484825282860190935260409020919091556103f8565b5060006103f8565b6000818152600183016020526040812054801561193157600061186c6001836124c8565b8554909150600090611880906001906124c8565b90508181146118e55760008660000182815481106118a0576118a061207a565b90600052602060002001549050808760000184815481106118c3576118c361207a565b6000918252602080832090910192909255918252600188019052604090208390555b85548690806118f6576118f66124db565b6001900381819060005260206000200160009055905585600101600086815260200190815260200160002060009055600193505050506103f8565b60009150506103f8565b80356001600160a01b038116811461195257600080fd5b919050565b6000806040838503121561196a57600080fd5b6119738361193b565b946020939093013593505050565b6001600160e01b031981168114610c2d57600080fd5b6000602082840312156119a957600080fd5b813561080981611981565b6000602082840312156119c657600080fd5b5035919050565b60005b838110156119e85781810151838201526020016119d0565b50506000910152565b60008151808452611a098160208601602086016119cd565b601f01601f19169290920160200192915050565b60208152600061080960208301846119f1565b634e487b7160e01b600052604160045260246000fd5b601f8201601f191681016001600160401b0381118282101715611a6b57611a6b611a30565b6040525050565b60006001600160401b03821115611a8b57611a8b611a30565b5060051b60200190565b600082601f830112611aa657600080fd5b8135611ab181611a72565b604051611abe8282611a46565b80915082815260208101915060208360051b860101925085831115611ae257600080fd5b602085015b83811015611aff578035835260209283019201611ae7565b5095945050505050565b600082601f830112611b1a57600080fd5b81356001600160401b03811115611b3357611b33611a30565b604051611b4a601f8301601f191660200182611a46565b818152846020838601011115611b5f57600080fd5b816020850160208301376000918101602001919091529392505050565b60008060008060808587031215611b9257600080fd5b611b9b8561193b565b935060208501356001600160401b03811115611bb657600080fd5b611bc287828801611a95565b93505060408501356001600160401b03811115611bde57600080fd5b611bea87828801611a95565b92505060608501356001600160401b03811115611c0657600080fd5b611c1287828801611b09565b91505092959194509250565b600080600080600060a08688031215611c3657600080fd5b611c3f8661193b565b9450611c4d6020870161193b565b935060408601356001600160401b03811115611c6857600080fd5b611c7488828901611a95565b93505060608601356001600160401b03811115611c9057600080fd5b611c9c88828901611a95565b92505060808601356001600160401b03811115611cb857600080fd5b611cc488828901611b09565b9150509295509295909350565b60008060408385031215611ce457600080fd5b82359150611cf46020840161193b565b90509250929050565b60008060408385031215611d1057600080fd5b82356001600160401b03811115611d2657600080fd5b8301601f81018513611d3757600080fd5b8035611d4281611a72565b604051611d4f8282611a46565b80915082815260208101915060208360051b850101925087831115611d7357600080fd5b6020840193505b82841015611d9c57611d8b8461193b565b825260209384019390910190611d7a565b945050505060208301356001600160401b03811115611dba57600080fd5b611dc685828601611a95565b9150509250929050565b600081518084526020840193506020830160005b82811015611e02578151865260209586019590910190600101611de4565b5093949350505050565b6020815260006108096020830184611dd0565b600080600060608486031215611e3457600080fd5b611e3d8461193b565b925060208401356001600160401b03811115611e5857600080fd5b611e6486828701611a95565b92505060408401356001600160401b03811115611e8057600080fd5b611e8c86828701611a95565b9150509250925092565b60008060008060808587031215611eac57600080fd5b611eb58561193b565b9350602085013592506040850135915060608501356001600160401b03811115611c0657600080fd5b60008060408385031215611ef157600080fd5b50508035926020909101359150565b60008060408385031215611f1357600080fd5b611f1c8361193b565b915060208301358015158114611f3157600080fd5b809150509250929050565b60008060408385031215611f4f57600080fd5b611f588361193b565b9150611cf46020840161193b565b600080600080600060a08688031215611f7e57600080fd5b611f878661193b565b9450611f956020870161193b565b9350604086013592506060860135915060808601356001600160401b03811115611cb857600080fd5b600080600060608486031215611fd357600080fd5b611fdc8461193b565b95602085013595506040909401359392505050565b600181811c9082168061200557607f821691505b60208210810361202557634e487b7160e01b600052602260045260246000fd5b50919050565b6020808252602f908201527f455243313135353a2063616c6c6572206973206e6f7420746f6b656e206f776e60408201526e195c881b9bdc88185c1c1c9bdd9959608a1b606082015260800190565b634e487b7160e01b600052603260045260246000fd5b60208082526021908201527f455243313135353a206d696e7420746f20746865207a65726f206164647265736040820152607360f81b606082015260800190565b60208082526028908201527f455243313135353a2069647320616e6420616d6f756e7473206c656e677468206040820152670dad2e6dac2e8c6d60c31b606082015260800190565b634e487b7160e01b600052601160045260246000fd5b808201808211156103f8576103f8612119565b6040815260006121556040830185611dd0565b82810360208401526121678185611dd0565b95945050505050565b60208082526025908201527f455243313135353a207472616e7366657220746f20746865207a65726f206164604082015264647265737360d81b606082015260800190565b6020808252602a908201527f455243313135353a20696e73756666696369656e742062616c616e636520666f60408201526939103a3930b739b332b960b11b606082015260800190565b60208082526023908201527f455243313135353a206275726e2066726f6d20746865207a65726f206164647260408201526265737360e81b606082015260800190565b60208082526024908201527f455243313135353a206275726e20616d6f756e7420657863656564732062616c604082015263616e636560e01b606082015260800190565b6001600160a01b0386811682528516602082015260a0604082018190526000906122b290830186611dd0565b82810360608401526122c48186611dd0565b905082810360808401526122d881856119f1565b98975050505050505050565b6000602082840312156122f657600080fd5b815161080981611981565b600060033d111561231a5760046000803e5060005160e01c5b90565b600060443d101561232b5790565b6040513d600319016004823e80513d60248201116001600160401b038211171561235457505090565b80820180516001600160401b0381111561236f575050505090565b3d8401600319018282016020011115612389575050505090565b61072b60208285010185611a46565b60208082526028908201527f455243313135353a204552433131353552656365697665722072656a656374656040820152676420746f6b656e7360c01b606082015260800190565b7f416363657373436f6e74726f6c3a206163636f756e74200000000000000000008152600083516124188160178501602088016119cd565b7001034b99036b4b9b9b4b733903937b6329607d1b60179184019182015283516124498160288401602088016119cd565b01602801949350505050565b6001600160a01b03868116825285166020820152604081018490526060810183905260a06080820181905260009061248f908301846119f1565b979650505050505050565b80820281158282048414176103f8576103f8612119565b6000816124c0576124c0612119565b506000190190565b818103818111156103f8576103f8612119565b634e487b7160e01b600052603160045260246000fdfea26469706673582212206c3e7a031d9301eae0808167178572b3abe769d7c172dde0fb2da190287712f164736f6c634300081b0033496e697469616c697a61626c653a20636f6e7472616374206973206e6f7420699f2df0fed2c77648de5860a4cc508cd0818c85b8b8a1ab4ceeef8d981c8956a6",
  "linkReferences": {},
  "deployedLinkReferences": {}
}