{
  "_format": "hh-sol-artifact-1",
  "contractName": "ERC721OnChain",
  "sourceName": "contracts/schain/tokens/ERC721OnChain.sol",
  "abi": [
    {
      "inputs": [
        {
          "internalType": "string",
          "name": "contractName",
          "type": "string"
        },
        {
          "internalType": "string",
          "name": "contractSymbol",
          "type": "string"
        }
      ],
      "stateMutability": "nonpayable",
      "type": "constructor"
    },
    {
      "anonymous": false,
      "inputs": [
        {
          "indexed": true,
          "internalType": "address",
          "name": "owner",
          "type": "address"
        },
        {
          "indexed": true,
          "internalType": "address",
          "name": "approved",
          "type": "address"
        },
        {
          "indexed": true,
          "internalType": "uint256",
          "name": "tokenId",
          "type": "uint256"
        }
      ],
      "name": "Approval",
      "type": "event"
    },
    {
      "anonymous": false,
      "inputs": [
        {
          "indexed": true,
          "internalType": "address",
          "name": "owner",
          "type": "address"
        },
        {
          "indexed": true,
          "internalType": "address",
          "name": "operator",
          "type": "address"
        },
        {
          "indexed": false,
          "internalType": "bool",
          "name": "approved",
          "type": "bool"
        }
      ],
      "name": "ApprovalForAll",
      "type": "event"
    },
    {
      "anonymous": false,
      "inputs": [
        {
          "indexed": false,
          "internalType": "uint8",
          "name": "version",
          "type": "uint8"
        }
      ],
      "name": "Initialized",
      "type": "event"
    },
    {
      "anonymous": false,
      "inputs": [
        {
          "indexed": true,
          "internalType": "bytes32",
          "name": "role",
          "type": "bytes32"
        },
        {
          "indexed": true,
          "internalType": "bytes32",
          "name": "previousAdminRole",
          "type": "bytes32"
        },
        {
          "indexed": true,
          "internalType": "bytes32",
          "name": "newAdminRole",
          "type": "bytes32"
        }
      ],
      "name": "RoleAdminChanged",
      "type": "event"
    },
    {
      "anonymous": false,
      "inputs": [
        {
          "indexed": true,
          "internalType": "bytes32",
          "name": "role",
          "type": "bytes32"
        },
        {
          "indexed": true,
          "internalType": "address",
          "name": "account",
          "type": "address"
        },
        {
          "indexed": true,
          "internalType": "address",
          "name": "sender",
          "type": "address"
        }
      ],
      "name": "RoleGranted",
      "type": "event"
    },
    {
      "anonymous": false,
      "inputs": [
        {
          "indexed": true,
          "internalType": "bytes32",
          "name": "role",
          "type": "bytes32"
        },
        {
          "indexed": true,
          "internalType": "address",
          "name": "account",
          "type": "address"
        },
        {
          "indexed": true,
          "internalType": "address",
          "name": "sender",
          "type": "address"
        }
      ],
      "name": "RoleRevoked",
      "type": "event"
    },
    {
      "anonymous": false,
      "inputs": [
        {
          "indexed": true,
          "internalType": "address",
          "name": "from",
          "type": "address"
        },
        {
          "indexed": true,
          "internalType": "address",
          "name": "to",
          "type": "address"
        },
        {
          "indexed": true,
          "internalType": "uint256",
          "name": "tokenId",
          "type": "uint256"
        }
      ],
      "name": "Transfer",
      "type": "event"
    },
    {
      "inputs": [],
      "name": "DEFAULT_ADMIN_ROLE",
      "outputs": [
        {
          "internalType": "bytes32",
          "name": "",
          "type": "bytes32"
        }
      ],
      "stateMutability": "view",
      "type": "function"
    },
    {
      "inputs": [],
      "name": "MINTER_ROLE",
      "outputs": [
        {
          "internalType": "bytes32",
          "name": "",
          "type": "bytes32"
        }
      ],
      "stateMutability": "view",
      "type": "function"
    },
    {
      "inputs": [
        {
          "internalType": "address",
          "name": "to",
          "type": "address"
        },
        {
          "internalType": "uint256",
          "name": "tokenId",
          "type": "uint256"
        }
      ],
      "name": "approve",
      "outputs": [],
      "stateMutability": "nonpayable",
      "type": "function"
    },
    {
      "inputs": [
        {
          "internalType": "address",
          "name": "owner",
          "type": "address"
        }
      ],
      "name": "balanceOf",
      "outputs": [
        {
          "internalType": "uint256",
          "name": "",
          "type": "uint256"
        }
      ],
      "stateMutability": "view",
      "type": "function"
    },
    {
      "inputs": [
        {
          "internalType": "uint256",
          "name": "tokenId",
          "type": "uint256"
        }
      ],
      "name": "burn",
      "outputs": [],
      "stateMutability": "nonpayable",
      "type": "function"
    },
    {
      "inputs": [
        {
          "internalType": "uint256",
          "name": "tokenId",
          "type": "uint256"
        }
      ],
      "name": "getApproved",
      "outputs": [
        {
          "internalType": "address",
          "name": "",
          "type": "address"
        }
      ],
      "stateMutability": "view",
      "type": "function"
    },
    {
      "inputs": [
        {
          "internalType": "bytes32",
          "name": "role",
          "type": "bytes32"
        }
      ],
      "name": "getRoleAdmin",
      "outputs": [
        {
          "internalType": "bytes32",
          "name": "",
          "type": "bytes32"
        }
      ],
      "stateMutability": "view",
      "type": "function"
    },
    {
      "inputs": [
        {
          "internalType": "bytes32",
          "name": "role",
          "type": "bytes32"
        },
        {
          "internalType": "uint256",
          "name": "index",
          "type": "uint256"
        }
      ],
      "name": "getRoleMember",
      "outputs": [
        {
          "internalType": "address",
          "name": "",
          "type": "address"
        }
      ],
      "stateMutability": "view",
      "type": "function"
    },
    {
      "inputs": [
        {
          "internalType": "bytes32",
          "name": "role",
          "type": "bytes32"
        }
      ],
      "name": "getRoleMemberCount",
      "outputs": [
        {
          "internalType": "uint256",
          "name": "",
          "type": "uint256"
        }
      ],
      "stateMutability": "view",
      "type": "function"
    },
    {
      "inputs": [
        {
          "internalType": "bytes32",
          "name": "role",
          "type": "bytes32"
        },
        {
          "internalType": "address",
          "name": "account",
          "type": "address"
        }
      ],
      "name": "grantRole",
      "outputs": [],
      "stateMutability": "nonpayable",
      "type": "function"
    },
    {
      "inputs": [
        {
          "internalType": "bytes32",
          "name": "role",
          "type": "bytes32"
        },
        {
          "internalType": "address",
          "name": "account",
          "type": "address"
        }
      ],
      "name": "hasRole",
      "outputs": [
        {
          "internalType": "bool",
          "name": "",
          "type": "bool"
        }
      ],
      "stateMutability": "view",
      "type": "function"
    },
    {
      "inputs": [
        {
          "internalType": "address",
          "name": "owner",
          "type": "address"
        },
        {
          "internalType": "address",
          "name": "operator",
          "type": "address"
        }
      ],
      "name": "isApprovedForAll",
      "outputs": [
        {
          "internalType": "bool",
          "name": "",
          "type": "bool"
        }
      ],
      "stateMutability": "view",
      "type": "function"
    },
    {
      "inputs": [
        {
          "internalType": "address",
          "name": "account",
          "type": "address"
        },
        {
          "internalType": "uint256",
          "name": "tokenId",
          "type": "uint256"
        }
      ],
      "name": "mint",
      "outputs": [],
      "stateMutability": "nonpayable",
      "type": "function"
    },
    {
      "inputs": [],
      "name": "name",
      "outputs": [
        {
          "internalType": "string",
          "name": "",
          "type": "string"
        }
      ],
      "stateMutability": "view",
      "type": "function"
    },
    {
      "inputs": [
        {
          "internalType": "uint256",
          "name": "tokenId",
          "type": "uint256"
        }
      ],
      "name": "ownerOf",
      "outputs": [
        {
          "internalType": "address",
          "name": "",
          "type": "address"
        }
      ],
      "stateMutability": "view",
      "type": "function"
    },
    {
      "inputs": [
        {
          "internalType": "bytes32",
          "name": "role",
          "type": "bytes32"
        },
        {
          "internalType": "address",
          "name": "account",
          "type": "address"
        }
      ],
      "name": "renounceRole",
      "outputs": [],
      "stateMutability": "nonpayable",
      "type": "function"
    },
    {
      "inputs": [
        {
          "internalType": "bytes32",
          "name": "role",
          "type": "bytes32"
        },
        {
          "internalType": "address",
          "name": "account",
          "type": "address"
        }
      ],
      "name": "revokeRole",
      "outputs": [],
      "stateMutability": "nonpayable",
      "type": "function"
    },
    {
      "inputs": [
        {
          "internalType": "address",
          "name": "from",
          "type": "address"
        },
        {
          "internalType": "address",
          "name": "to",
          "type": "address"
        },
        {
          "internalType": "uint256",
          "name": "tokenId",
          "type": "uint256"
        }
      ],
      "name": "safeTransferFrom",
      "outputs": [],
      "stateMutability": "nonpayable",
      "type": "function"
    },
    {
      "inputs": [
        {
          "internalType": "address",
          "name": "from",
          "type": "address"
        },
        {
          "internalType": "address",
          "name": "to",
          "type": "address"
        },
        {
          "internalType": "uint256",
          "name": "tokenId",
          "type": "uint256"
        },
        {
          "internalType": "bytes",
          "name": "data",
          "type": "bytes"
        }
      ],
      "name": "safeTransferFrom",
      "outputs": [],
      "stateMutability": "nonpayable",
      "type": "function"
    },
    {
      "inputs": [
        {
          "internalType": "address",
          "name": "operator",
          "type": "address"
        },
        {
          "internalType": "bool",
          "name": "approved",
          "type": "bool"
        }
      ],
      "name": "setApprovalForAll",
      "outputs": [],
      "stateMutability": "nonpayable",
      "type": "function"
    },
    {
      "inputs": [
        {
          "internalType": "uint256",
          "name": "tokenId",
          "type": "uint256"
        },
        {
          "internalType": "string",
          "name": "tokenUri",
          "type": "string"
        }
      ],
      "name": "setTokenURI",
      "outputs": [
        {
          "internalType": "bool",
          "name": "",
          "type": "bool"
        }
      ],
      "stateMutability": "nonpayable",
      "type": "function"
    },
    {
      "inputs": [
        {
          "internalType": "bytes4",
          "name": "interfaceId",
          "type": "bytes4"
        }
      ],
      "name": "supportsInterface",
      "outputs": [
        {
          "internalType": "bool",
          "name": "",
          "type": "bool"
        }
      ],
      "stateMutability": "view",
      "type": "function"
    },
    {
      "inputs": [],
      "name": "symbol",
      "outputs": [
        {
          "internalType": "string",
          "name": "",
          "type": "string"
        }
      ],
      "stateMutability": "view",
      "type": "function"
    },
    {
      "inputs": [
        {
          "internalType": "uint256",
          "name": "tokenId",
          "type": "uint256"
        }
      ],
      "name": "tokenURI",
      "outputs": [
        {
          "internalType": "string",
          "name": "",
          "type": "string"
        }
      ],
      "stateMutability": "view",
      "type": "function"
    },
    {
      "inputs": [
        {
          "internalType": "address",
          "name": "from",
          "type": "address"
        },
        {
          "internalType": "address",
          "name": "to",
          "type": "address"
        },
        {
          "internalType": "uint256",
          "name": "tokenId",
          "type": "uint256"
        }
      ],
      "name": "transferFrom",
      "outputs": [],
      "stateMutability": "nonpayable",
      "type": "function"
    }
  ],
  "bytecode": "0x608060405234801561001057600080fd5b506040516128b13803806128b183398101604081905261002f91610504565b600054610100900460ff161580801561004f5750600054600160ff909116105b806100695750303b158015610069575060005460ff166001145b6100d15760405162461bcd60e51b815260206004820152602e60248201527f496e697469616c697a61626c653a20636f6e747261637420697320616c72656160448201526d191e481a5b9a5d1a585b1a5e995960921b60648201526084015b60405180910390fd5b6000805460ff1916600117905580156100f4576000805461ff0019166101001790555b6100fc61018c565b61010683836101e7565b61010e61018c565b6101266000805160206128918339815191528061024e565b61013e60008051602061289183398151915233610299565b8015610184576000805461ff0019169055604051600181527f7f26b83ff96e1f2b6a682f133852f6798a09c465da95921460cefb38474024989060200160405180910390a15b5050506106b3565b600054610100900460ff166101e55760405162461bcd60e51b815260206004820152602b602482015260008051602061287183398151915260448201526a6e697469616c697a696e6760a81b60648201526084016100c8565b565b600054610100900460ff166102405760405162461bcd60e51b815260206004820152602b602482015260008051602061287183398151915260448201526a6e697469616c697a696e6760a81b60648201526084016100c8565b61024a82826102a3565b5050565b600082815260656020526040808220600101805490849055905190918391839186917fbd79b86ffe0ab8e8776151514217cd7cacd52c909f66475c3af44e129f0b00ff9190a4505050565b61024a828261031a565b600054610100900460ff166102fc5760405162461bcd60e51b815260206004820152602b602482015260008051602061287183398151915260448201526a6e697469616c697a696e6760a81b60648201526084016100c8565b60c961030883826105f5565b5060ca61031582826105f5565b505050565b610324828261033c565b600082815260976020526040902061031590826103de565b60008281526065602090815260408083206001600160a01b038516845290915290205460ff1661024a5760008281526065602090815260408083206001600160a01b03851684529091529020805460ff1916600117905561039a3390565b6001600160a01b0316816001600160a01b0316837f2f8788117e7eff1d82e926ec794901d17c78024a50270940304540a733656f0d60405160405180910390a45050565b60006103f3836001600160a01b0384166103fc565b90505b92915050565b6000818152600183016020526040812054610443575081546001818101845560008481526020808220909301849055845484825282860190935260409020919091556103f6565b5060006103f6565b634e487b7160e01b600052604160045260246000fd5b600082601f83011261047257600080fd5b81516001600160401b0381111561048b5761048b61044b565b604051601f8201601f19908116603f011681016001600160401b03811182821017156104b9576104b961044b565b6040528181528382016020018510156104d157600080fd5b60005b828110156104f0576020818601810151838301820152016104d4565b506000918101602001919091529392505050565b6000806040838503121561051757600080fd5b82516001600160401b0381111561052d57600080fd5b61053985828601610461565b602085015190935090506001600160401b0381111561055757600080fd5b61056385828601610461565b9150509250929050565b600181811c9082168061058157607f821691505b6020821081036105a157634e487b7160e01b600052602260045260246000fd5b50919050565b601f82111561031557806000526020600020601f840160051c810160208510156105ce5750805b601f840160051c820191505b818110156105ee57600081556001016105da565b5050505050565b81516001600160401b0381111561060e5761060e61044b565b6106228161061c845461056d565b846105a7565b6020601f821160018114610656576000831561063e5750848201515b600019600385901b1c1916600184901b1784556105ee565b600084815260208120601f198516915b828110156106865787850151825560209485019460019092019101610666565b50848210156106a45786840151600019600387901b60f8161c191681555b50505050600190811b01905550565b6121af806106c26000396000f3fe608060405234801561001057600080fd5b50600436106101735760003560e01c80636352211e116100de578063a22cb46511610097578063ca15c87311610071578063ca15c87314610340578063d539139314610353578063d547741f1461037a578063e985e9c51461038d57600080fd5b8063a22cb46514610307578063b88d4fde1461031a578063c87b56dd1461032d57600080fd5b80636352211e146102ab57806370a08231146102be5780639010d07c146102d157806391d14854146102e457806395d89b41146102f7578063a217fddf146102ff57600080fd5b8063248a9ca311610130578063248a9ca31461021b5780632f2ff15d1461024c57806336568abe1461025f57806340c10f191461027257806342842e0e1461028557806342966c681461029857600080fd5b806301ffc9a71461017857806306fdde03146101a0578063081812fc146101b5578063095ea7b3146101e0578063162094c4146101f557806323b872dd14610208575b600080fd5b61018b610186366004611a44565b6103c9565b60405190151581526020015b60405180910390f35b6101a86103da565b6040516101979190611ab1565b6101c86101c3366004611ac4565b61046c565b6040516001600160a01b039091168152602001610197565b6101f36101ee366004611af9565b610493565b005b61018b610203366004611b23565b6105ad565b6101f3610216366004611ba1565b6106d9565b61023e610229366004611ac4565b60009081526065602052604090206001015490565b604051908152602001610197565b6101f361025a366004611bde565b61070b565b6101f361026d366004611bde565b610730565b6101f3610280366004611af9565b6107ae565b6101f3610293366004611ba1565b610827565b6101f36102a6366004611ac4565b610842565b6101c86102b9366004611ac4565b610873565b61023e6102cc366004611c0a565b6108d3565b6101c86102df366004611c25565b610959565b61018b6102f2366004611bde565b610978565b6101a86109a3565b61023e600081565b6101f3610315366004611c47565b6109b2565b6101f3610328366004611c99565b6109bd565b6101a861033b366004611ac4565b6109f5565b61023e61034e366004611ac4565b610a00565b61023e7f9f2df0fed2c77648de5860a4cc508cd0818c85b8b8a1ab4ceeef8d981c8956a681565b6101f3610388366004611bde565b610a17565b61018b61039b366004611d7d565b6001600160a01b03918216600090815260ce6020908152604080832093909416825291909152205460ff1690565b60006103d482610a3c565b92915050565b606060c980546103e990611da7565b80601f016020809104026020016040519081016040528092919081815260200182805461041590611da7565b80156104625780601f1061043757610100808354040283529160200191610462565b820191906000526020600020905b81548152906001019060200180831161044557829003601f168201915b5050505050905090565b600061047782610a7c565b50600090815260cd60205260409020546001600160a01b031690565b600061049e82610873565b9050806001600160a01b0316836001600160a01b0316036105105760405162461bcd60e51b815260206004820152602160248201527f4552433732313a20617070726f76616c20746f2063757272656e74206f776e656044820152603960f91b60648201526084015b60405180910390fd5b336001600160a01b038216148061052c575061052c813361039b565b61059e5760405162461bcd60e51b815260206004820152603e60248201527f4552433732313a20617070726f76652063616c6c6572206973206e6f7420746f60448201527f6b656e206f776e6572206e6f7220617070726f76656420666f7220616c6c00006064820152608401610507565b6105a88383610adb565b505050565b600083815260cb60205260408120546001600160a01b03166106095760405162461bcd60e51b8152602060048201526015602482015274546f6b656e20646f6573206e6f742065786973747360581b6044820152606401610507565b6106133385610b49565b8061064357506106437f9f2df0fed2c77648de5860a4cc508cd0818c85b8b8a1ab4ceeef8d981c8956a633610978565b61068f5760405162461bcd60e51b815260206004820152601c60248201527f53656e6465722063616e206e6f742073657420746f6b656e20555249000000006044820152606401610507565b6106cf8484848080601f016020809104026020016040519081016040528093929190818152602001838380828437600092019190915250610bc892505050565b5060019392505050565b6106e4335b82610b49565b6107005760405162461bcd60e51b815260040161050790611de1565b6105a8838383610c5c565b60008281526065602052604090206001015461072681610df8565b6105a88383610e02565b6001600160a01b03811633146107a05760405162461bcd60e51b815260206004820152602f60248201527f416363657373436f6e74726f6c3a2063616e206f6e6c792072656e6f756e636560448201526e103937b632b9903337b91039b2b63360891b6064820152608401610507565b6107aa8282610e24565b5050565b6107d87f9f2df0fed2c77648de5860a4cc508cd0818c85b8b8a1ab4ceeef8d981c8956a633610978565b61081d5760405162461bcd60e51b815260206004820152601660248201527529b2b73232b91034b9903737ba10309026b4b73a32b960511b6044820152606401610507565b6107aa8282610e46565b6105a8838383604051806020016040528060008152506109bd565b61084b336106de565b6108675760405162461bcd60e51b815260040161050790611de1565b61087081610f88565b50565b600081815260cb60205260408120546001600160a01b0316806103d45760405162461bcd60e51b8152602060048201526018602482015277115490cdcc8c4e881a5b9d985b1a59081d1bdad95b88125160421b6044820152606401610507565b60006001600160a01b03821661093d5760405162461bcd60e51b815260206004820152602960248201527f4552433732313a2061646472657373207a65726f206973206e6f7420612076616044820152683634b21037bbb732b960b91b6064820152608401610507565b506001600160a01b0316600090815260cc602052604090205490565b60008281526097602052604081206109719083610f91565b9392505050565b60009182526065602090815260408084206001600160a01b0393909316845291905290205460ff1690565b606060ca80546103e990611da7565b6107aa338383610f9d565b6109c73383610b49565b6109e35760405162461bcd60e51b815260040161050790611de1565b6109ef8484848461106b565b50505050565b60606103d48261109e565b60008181526097602052604081206103d4906111a7565b600082815260656020526040902060010154610a3281610df8565b6105a88383610e24565b60006001600160e01b031982166380ac58cd60e01b1480610a6d57506001600160e01b03198216635b5e139f60e01b145b806103d457506103d4826111b1565b600081815260cb60205260409020546001600160a01b03166108705760405162461bcd60e51b8152602060048201526018602482015277115490cdcc8c4e881a5b9d985b1a59081d1bdad95b88125160421b6044820152606401610507565b600081815260cd6020526040902080546001600160a01b0319166001600160a01b0384169081179091558190610b1082610873565b6001600160a01b03167f8c5be1e5ebec7d5bd14f71427d1e84f3dd0314c0f7b2291e5b200ac8c7c3b92560405160405180910390a45050565b600080610b5583610873565b9050806001600160a01b0316846001600160a01b03161480610b9c57506001600160a01b03808216600090815260ce602090815260408083209388168352929052205460ff165b80610bc05750836001600160a01b0316610bb58461046c565b6001600160a01b0316145b949350505050565b600082815260cb60205260409020546001600160a01b0316610c435760405162461bcd60e51b815260206004820152602e60248201527f45524337323155524953746f726167653a2055524920736574206f66206e6f6e60448201526d32bc34b9ba32b73a103a37b5b2b760911b6064820152608401610507565b600082815261012d602052604090206105a88282611e7d565b826001600160a01b0316610c6f82610873565b6001600160a01b031614610cd35760405162461bcd60e51b815260206004820152602560248201527f4552433732313a207472616e736665722066726f6d20696e636f72726563742060448201526437bbb732b960d91b6064820152608401610507565b6001600160a01b038216610d355760405162461bcd60e51b8152602060048201526024808201527f4552433732313a207472616e7366657220746f20746865207a65726f206164646044820152637265737360e01b6064820152608401610507565b610d40600082610adb565b6001600160a01b038316600090815260cc60205260408120805460019290610d69908490611f52565b90915550506001600160a01b038216600090815260cc60205260408120805460019290610d97908490611f65565b9091555050600081815260cb602052604080822080546001600160a01b0319166001600160a01b0386811691821790925591518493918716917fddf252ad1be2c89b69c2b068fc378daa952ba7f163c4a11628f55a4df523b3ef91a4505050565b61087081336111d6565b610e0c828261123a565b60008281526097602052604090206105a890826112c0565b610e2e82826112d5565b60008281526097602052604090206105a8908261133c565b6001600160a01b038216610e9c5760405162461bcd60e51b815260206004820181905260248201527f4552433732313a206d696e7420746f20746865207a65726f20616464726573736044820152606401610507565b600081815260cb60205260409020546001600160a01b031615610f015760405162461bcd60e51b815260206004820152601c60248201527f4552433732313a20746f6b656e20616c7265616479206d696e746564000000006044820152606401610507565b6001600160a01b038216600090815260cc60205260408120805460019290610f2a908490611f65565b9091555050600081815260cb602052604080822080546001600160a01b0319166001600160a01b03861690811790915590518392907fddf252ad1be2c89b69c2b068fc378daa952ba7f163c4a11628f55a4df523b3ef908290a45050565b61087081611351565b60006109718383611393565b816001600160a01b0316836001600160a01b031603610ffe5760405162461bcd60e51b815260206004820152601960248201527f4552433732313a20617070726f766520746f2063616c6c6572000000000000006044820152606401610507565b6001600160a01b03838116600081815260ce6020908152604080832094871680845294825291829020805460ff191686151590811790915591519182527f17307eab39ab6107e8899845ad3d59bd9653f200f220920489ca2b5937696c31910160405180910390a3505050565b611076848484610c5c565b611082848484846113bd565b6109ef5760405162461bcd60e51b815260040161050790611f78565b60606110a982610a7c565b600082815261012d6020526040812080546110c390611da7565b80601f01602080910402602001604051908101604052809291908181526020018280546110ef90611da7565b801561113c5780601f106111115761010080835404028352916020019161113c565b820191906000526020600020905b81548152906001019060200180831161111f57829003601f168201915b50505050509050600061115a60408051602081019091526000815290565b9050805160000361116c575092915050565b81511561119e578082604051602001611186929190611fca565b60405160208183030381529060405292505050919050565b610bc0846114be565b60006103d4825490565b60006001600160e01b03198216635a05180f60e01b14806103d457506103d482611531565b6111e08282610978565b6107aa576111f8816001600160a01b03166014611566565b611203836020611566565b604051602001611214929190611ff9565b60408051601f198184030181529082905262461bcd60e51b825261050791600401611ab1565b6112448282610978565b6107aa5760008281526065602090815260408083206001600160a01b03851684529091529020805460ff1916600117905561127c3390565b6001600160a01b0316816001600160a01b0316837f2f8788117e7eff1d82e926ec794901d17c78024a50270940304540a733656f0d60405160405180910390a45050565b6000610971836001600160a01b038416611702565b6112df8282610978565b156107aa5760008281526065602090815260408083206001600160a01b0385168085529252808320805460ff1916905551339285917ff6391f5c32d9c69d2a47ea670b442974b53935d1edc7fd64eb21e047a839171b9190a45050565b6000610971836001600160a01b038416611751565b61135a81611844565b600081815261012d60205260409020805461137490611da7565b15905061087057600081815261012d60205260408120610870916119e0565b60008260000182815481106113aa576113aa61206e565b9060005260206000200154905092915050565b60006001600160a01b0384163b156114b357604051630a85bd0160e11b81526001600160a01b0385169063150b7a0290611401903390899088908890600401612084565b6020604051808303816000875af192505050801561143c575060408051601f3d908101601f19168201909252611439918101906120c1565b60015b611499573d80801561146a576040519150601f19603f3d011682016040523d82523d6000602084013e61146f565b606091505b5080516000036114915760405162461bcd60e51b815260040161050790611f78565b805181602001fd5b6001600160e01b031916630a85bd0160e11b149050610bc0565b506001949350505050565b60606114c982610a7c565b60006114e060408051602081019091526000815290565b905060008151116115005760405180602001604052806000815250610971565b8061150a846118df565b60405160200161151b929190611fca565b6040516020818303038152906040529392505050565b60006001600160e01b03198216637965db0b60e01b14806103d457506301ffc9a760e01b6001600160e01b03198316146103d4565b606060006115758360026120de565b611580906002611f65565b67ffffffffffffffff81111561159857611598611c83565b6040519080825280601f01601f1916602001820160405280156115c2576020820181803683370190505b509050600360fc1b816000815181106115dd576115dd61206e565b60200101906001600160f81b031916908160001a905350600f60fb1b8160018151811061160c5761160c61206e565b60200101906001600160f81b031916908160001a90535060006116308460026120de565b61163b906001611f65565b90505b60018111156116b3576f181899199a1a9b1b9c1cb0b131b232b360811b85600f166010811061166f5761166f61206e565b1a60f81b8282815181106116855761168561206e565b60200101906001600160f81b031916908160001a90535060049490941c936116ac816120f5565b905061163e565b5083156109715760405162461bcd60e51b815260206004820181905260248201527f537472696e67733a20686578206c656e67746820696e73756666696369656e746044820152606401610507565b6000818152600183016020526040812054611749575081546001818101845560008481526020808220909301849055845484825282860190935260409020919091556103d4565b5060006103d4565b6000818152600183016020526040812054801561183a576000611775600183611f52565b855490915060009061178990600190611f52565b90508181146117ee5760008660000182815481106117a9576117a961206e565b90600052602060002001549050808760000184815481106117cc576117cc61206e565b6000918252602080832090910192909255918252600188019052604090208390555b85548690806117ff576117ff61210c565b6001900381819060005260206000200160009055905585600101600086815260200190815260200160002060009055600193505050506103d4565b60009150506103d4565b600061184f82610873565b905061185c600083610adb565b6001600160a01b038116600090815260cc60205260408120805460019290611885908490611f52565b9091555050600082815260cb602052604080822080546001600160a01b0319169055518391906001600160a01b038416907fddf252ad1be2c89b69c2b068fc378daa952ba7f163c4a11628f55a4df523b3ef908390a45050565b6060816000036119065750506040805180820190915260018152600360fc1b602082015290565b8160005b8115611930578061191a81612122565b91506119299050600a83612151565b915061190a565b60008167ffffffffffffffff81111561194b5761194b611c83565b6040519080825280601f01601f191660200182016040528015611975576020820181803683370190505b5090505b8415610bc05761198a600183611f52565b9150611997600a86612165565b6119a2906030611f65565b60f81b8183815181106119b7576119b761206e565b60200101906001600160f81b031916908160001a9053506119d9600a86612151565b9450611979565b5080546119ec90611da7565b6000825580601f106119fc575050565b601f01602090049060005260206000209081019061087091905b80821115611a2a5760008155600101611a16565b5090565b6001600160e01b03198116811461087057600080fd5b600060208284031215611a5657600080fd5b813561097181611a2e565b60005b83811015611a7c578181015183820152602001611a64565b50506000910152565b60008151808452611a9d816020860160208601611a61565b601f01601f19169290920160200192915050565b6020815260006109716020830184611a85565b600060208284031215611ad657600080fd5b5035919050565b80356001600160a01b0381168114611af457600080fd5b919050565b60008060408385031215611b0c57600080fd5b611b1583611add565b946020939093013593505050565b600080600060408486031215611b3857600080fd5b83359250602084013567ffffffffffffffff811115611b5657600080fd5b8401601f81018613611b6757600080fd5b803567ffffffffffffffff811115611b7e57600080fd5b866020828401011115611b9057600080fd5b939660209190910195509293505050565b600080600060608486031215611bb657600080fd5b611bbf84611add565b9250611bcd60208501611add565b929592945050506040919091013590565b60008060408385031215611bf157600080fd5b82359150611c0160208401611add565b90509250929050565b600060208284031215611c1c57600080fd5b61097182611add565b60008060408385031215611c3857600080fd5b50508035926020909101359150565b60008060408385031215611c5a57600080fd5b611c6383611add565b915060208301358015158114611c7857600080fd5b809150509250929050565b634e487b7160e01b600052604160045260246000fd5b60008060008060808587031215611caf57600080fd5b611cb885611add565b9350611cc660208601611add565b925060408501359150606085013567ffffffffffffffff811115611ce957600080fd5b8501601f81018713611cfa57600080fd5b803567ffffffffffffffff811115611d1457611d14611c83565b604051601f8201601f19908116603f0116810167ffffffffffffffff81118282101715611d4357611d43611c83565b604052818152828201602001891015611d5b57600080fd5b8160208401602083013760006020838301015280935050505092959194509250565b60008060408385031215611d9057600080fd5b611d9983611add565b9150611c0160208401611add565b600181811c90821680611dbb57607f821691505b602082108103611ddb57634e487b7160e01b600052602260045260246000fd5b50919050565b6020808252602e908201527f4552433732313a2063616c6c6572206973206e6f7420746f6b656e206f776e6560408201526d1c881b9bdc88185c1c1c9bdd995960921b606082015260800190565b601f8211156105a857806000526020600020601f840160051c81016020851015611e565750805b601f840160051c820191505b81811015611e765760008155600101611e62565b5050505050565b815167ffffffffffffffff811115611e9757611e97611c83565b611eab81611ea58454611da7565b84611e2f565b6020601f821160018114611edf5760008315611ec75750848201515b600019600385901b1c1916600184901b178455611e76565b600084815260208120601f198516915b82811015611f0f5787850151825560209485019460019092019101611eef565b5084821015611f2d5786840151600019600387901b60f8161c191681555b50505050600190811b01905550565b634e487b7160e01b600052601160045260246000fd5b818103818111156103d4576103d4611f3c565b808201808211156103d4576103d4611f3c565b60208082526032908201527f4552433732313a207472616e7366657220746f206e6f6e20455243373231526560408201527131b2b4bb32b91034b6b83632b6b2b73a32b960711b606082015260800190565b60008351611fdc818460208801611a61565b835190830190611ff0818360208801611a61565b01949350505050565b7f416363657373436f6e74726f6c3a206163636f756e7420000000000000000000815260008351612031816017850160208801611a61565b7001034b99036b4b9b9b4b733903937b6329607d1b6017918401918201528351612062816028840160208801611a61565b01602801949350505050565b634e487b7160e01b600052603260045260246000fd5b6001600160a01b03858116825284166020820152604081018390526080606082018190526000906120b790830184611a85565b9695505050505050565b6000602082840312156120d357600080fd5b815161097181611a2e565b80820281158282048414176103d4576103d4611f3c565b60008161210457612104611f3c565b506000190190565b634e487b7160e01b600052603160045260246000fd5b60006001820161213457612134611f3c565b5060010190565b634e487b7160e01b600052601260045260246000fd5b6000826121605761216061213b565b500490565b6000826121745761217461213b565b50069056fea26469706673582212208128849d4d90ea66504b36def4e66dd3a4842b90464ce10372a4c47ee8921cdc64736f6c634300081b0033496e697469616c697a61626c653a20636f6e7472616374206973206e6f7420699f2df0fed2c77648de5860a4cc508cd0818c85b8b8a1ab4ceeef8d981c8956a6",
  "linkReferences": {},
  "deployedLinkReferences": {}
}