{
  "_format": "hh-sol-artifact-1",
  "contractName": "ERC20OnChain",
  "sourceName": "contracts/schain/tokens/ERC20OnChain.sol",
  "abi": [
    {
      "inputs": [
        {
          "internalType": "string",
          "name": "contractName",
          "type": "string"
        },
        {
          "internalType": "string",
          "name": "contractSymbol",
          "type": "string"
        }
      ],
      "stateMutability": "nonpayable",
      "type": "constructor"
    },
    {
      "anonymous": false,
      "inputs": [
        {
          "indexed": true,
          "internalType": "address",
          "name": "owner",
          "type": "address"
        },
        {
          "indexed": true,
          "internalType": "address",
          "name": "spender",
          "type": "address"
        },
        {
          "indexed": false,
          "internalType": "uint256",
          "name": "value",
          "type": "uint256"
        }
      ],
      "name": "Approval",
      "type": "event"
    },
    {
      "anonymous": false,
      "inputs": [
        {
          "indexed": false,
          "internalType": "uint8",
          "name": "version",
          "type": "uint8"
        }
      ],
      "name": "Initialized",
      "type": "event"
    },
    {
      "anonymous": false,
      "inputs": [
        {
          "indexed": true,
          "internalType": "bytes32",
          "name": "role",
          "type": "bytes32"
        },
        {
          "indexed": true,
          "internalType": "bytes32",
          "name": "previousAdminRole",
          "type": "bytes32"
        },
        {
          "indexed": true,
          "internalType": "bytes32",
          "name": "newAdminRole",
          "type": "bytes32"
        }
      ],
      "name": "RoleAdminChanged",
      "type": "event"
    },
    {
      "anonymous": false,
      "inputs": [
        {
          "indexed": true,
          "internalType": "bytes32",
          "name": "role",
          "type": "bytes32"
        },
        {
          "indexed": true,
          "internalType": "address",
          "name": "account",
          "type": "address"
        },
        {
          "indexed": true,
          "internalType": "address",
          "name": "sender",
          "type": "address"
        }
      ],
      "name": "RoleGranted",
      "type": "event"
    },
    {
      "anonymous": false,
      "inputs": [
        {
          "indexed": true,
          "internalType": "bytes32",
          "name": "role",
          "type": "bytes32"
        },
        {
          "indexed": true,
          "internalType": "address",
          "name": "account",
          "type": "address"
        },
        {
          "indexed": true,
          "internalType": "address",
          "name": "sender",
          "type": "address"
        }
      ],
      "name": "RoleRevoked",
      "type": "event"
    },
    {
      "anonymous": false,
      "inputs": [
        {
          "indexed": true,
          "internalType": "address",
          "name": "from",
          "type": "address"
        },
        {
          "indexed": true,
          "internalType": "address",
          "name": "to",
          "type": "address"
        },
        {
          "indexed": false,
          "internalType": "uint256",
          "name": "value",
          "type": "uint256"
        }
      ],
      "name": "Transfer",
      "type": "event"
    },
    {
      "inputs": [],
      "name": "DEFAULT_ADMIN_ROLE",
      "outputs": [
        {
          "internalType": "bytes32",
          "name": "",
          "type": "bytes32"
        }
      ],
      "stateMutability": "view",
      "type": "function"
    },
    {
      "inputs": [],
      "name": "MINTER_ROLE",
      "outputs": [
        {
          "internalType": "bytes32",
          "name": "",
          "type": "bytes32"
        }
      ],
      "stateMutability": "view",
      "type": "function"
    },
    {
      "inputs": [
        {
          "internalType": "address",
          "name": "owner",
          "type": "address"
        },
        {
          "internalType": "address",
          "name": "spender",
          "type": "address"
        }
      ],
      "name": "allowance",
      "outputs": [
        {
          "internalType": "uint256",
          "name": "",
          "type": "uint256"
        }
      ],
      "stateMutability": "view",
      "type": "function"
    },
    {
      "inputs": [
        {
          "internalType": "address",
          "name": "spender",
          "type": "address"
        },
        {
          "internalType": "uint256",
          "name": "amount",
          "type": "uint256"
        }
      ],
      "name": "approve",
      "outputs": [
        {
          "internalType": "bool",
          "name": "",
          "type": "bool"
        }
      ],
      "stateMutability": "nonpayable",
      "type": "function"
    },
    {
      "inputs": [
        {
          "internalType": "address",
          "name": "account",
          "type": "address"
        }
      ],
      "name": "balanceOf",
      "outputs": [
        {
          "internalType": "uint256",
          "name": "",
          "type": "uint256"
        }
      ],
      "stateMutability": "view",
      "type": "function"
    },
    {
      "inputs": [
        {
          "internalType": "uint256",
          "name": "amount",
          "type": "uint256"
        }
      ],
      "name": "burn",
      "outputs": [],
      "stateMutability": "nonpayable",
      "type": "function"
    },
    {
      "inputs": [
        {
          "internalType": "address",
          "name": "account",
          "type": "address"
        },
        {
          "internalType": "uint256",
          "name": "amount",
          "type": "uint256"
        }
      ],
      "name": "burnFrom",
      "outputs": [],
      "stateMutability": "nonpayable",
      "type": "function"
    },
    {
      "inputs": [],
      "name": "decimals",
      "outputs": [
        {
          "internalType": "uint8",
          "name": "",
          "type": "uint8"
        }
      ],
      "stateMutability": "view",
      "type": "function"
    },
    {
      "inputs": [
        {
          "internalType": "address",
          "name": "spender",
          "type": "address"
        },
        {
          "internalType": "uint256",
          "name": "subtractedValue",
          "type": "uint256"
        }
      ],
      "name": "decreaseAllowance",
      "outputs": [
        {
          "internalType": "bool",
          "name": "",
          "type": "bool"
        }
      ],
      "stateMutability": "nonpayable",
      "type": "function"
    },
    {
      "inputs": [
        {
          "internalType": "bytes32",
          "name": "role",
          "type": "bytes32"
        }
      ],
      "name": "getRoleAdmin",
      "outputs": [
        {
          "internalType": "bytes32",
          "name": "",
          "type": "bytes32"
        }
      ],
      "stateMutability": "view",
      "type": "function"
    },
    {
      "inputs": [
        {
          "internalType": "bytes32",
          "name": "role",
          "type": "bytes32"
        },
        {
          "internalType": "uint256",
          "name": "index",
          "type": "uint256"
        }
      ],
      "name": "getRoleMember",
      "outputs": [
        {
          "internalType": "address",
          "name": "",
          "type": "address"
        }
      ],
      "stateMutability": "view",
      "type": "function"
    },
    {
      "inputs": [
        {
          "internalType": "bytes32",
          "name": "role",
          "type": "bytes32"
        }
      ],
      "name": "getRoleMemberCount",
      "outputs": [
        {
          "internalType": "uint256",
          "name": "",
          "type": "uint256"
        }
      ],
      "stateMutability": "view",
      "type": "function"
    },
    {
      "inputs": [
        {
          "internalType": "bytes32",
          "name": "role",
          "type": "bytes32"
        },
        {
          "internalType": "address",
          "name": "account",
          "type": "address"
        }
      ],
      "name": "grantRole",
      "outputs": [],
      "stateMutability": "nonpayable",
      "type": "function"
    },
    {
      "inputs": [
        {
          "internalType": "bytes32",
          "name": "role",
          "type": "bytes32"
        },
        {
          "internalType": "address",
          "name": "account",
          "type": "address"
        }
      ],
      "name": "hasRole",
      "outputs": [
        {
          "internalType": "bool",
          "name": "",
          "type": "bool"
        }
      ],
      "stateMutability": "view",
      "type": "function"
    },
    {
      "inputs": [
        {
          "internalType": "address",
          "name": "spender",
          "type": "address"
        },
        {
          "internalType": "uint256",
          "name": "addedValue",
          "type": "uint256"
        }
      ],
      "name": "increaseAllowance",
      "outputs": [
        {
          "internalType": "bool",
          "name": "",
          "type": "bool"
        }
      ],
      "stateMutability": "nonpayable",
      "type": "function"
    },
    {
      "inputs": [
        {
          "internalType": "address",
          "name": "account",
          "type": "address"
        },
        {
          "internalType": "uint256",
          "name": "value",
          "type": "uint256"
        }
      ],
      "name": "mint",
      "outputs": [],
      "stateMutability": "nonpayable",
      "type": "function"
    },
    {
      "inputs": [],
      "name": "name",
      "outputs": [
        {
          "internalType": "string",
          "name": "",
          "type": "string"
        }
      ],
      "stateMutability": "view",
      "type": "function"
    },
    {
      "inputs": [
        {
          "internalType": "bytes32",
          "name": "role",
          "type": "bytes32"
        },
        {
          "internalType": "address",
          "name": "account",
          "type": "address"
        }
      ],
      "name": "renounceRole",
      "outputs": [],
      "stateMutability": "nonpayable",
      "type": "function"
    },
    {
      "inputs": [
        {
          "internalType": "bytes32",
          "name": "role",
          "type": "bytes32"
        },
        {
          "internalType": "address",
          "name": "account",
          "type": "address"
        }
      ],
      "name": "revokeRole",
      "outputs": [],
      "stateMutability": "nonpayable",
      "type": "function"
    },
    {
      "inputs": [
        {
          "internalType": "bytes4",
          "name": "interfaceId",
          "type": "bytes4"
        }
      ],
      "name": "supportsInterface",
      "outputs": [
        {
          "internalType": "bool",
          "name": "",
          "type": "bool"
        }
      ],
      "stateMutability": "view",
      "type": "function"
    },
    {
      "inputs": [],
      "name": "symbol",
      "outputs": [
        {
          "internalType": "string",
          "name": "",
          "type": "string"
        }
      ],
      "stateMutability": "view",
      "type": "function"
    },
    {
      "inputs": [],
      "name": "totalSupply",
      "outputs": [
        {
          "internalType": "uint256",
          "name": "",
          "type": "uint256"
        }
      ],
      "stateMutability": "view",
      "type": "function"
    },
    {
      "inputs": [
        {
          "internalType": "address",
          "name": "to",
          "type": "address"
        },
        {
          "internalType": "uint256",
          "name": "amount",
          "type": "uint256"
        }
      ],
      "name": "transfer",
      "outputs": [
        {
          "internalType": "bool",
          "name": "",
          "type": "bool"
        }
      ],
      "stateMutability": "nonpayable",
      "type": "function"
    },
    {
      "inputs": [
        {
          "internalType": "address",
          "name": "from",
          "type": "address"
        },
        {
          "internalType": "address",
          "name": "to",
          "type": "address"
        },
        {
          "internalType": "uint256",
          "name": "amount",
          "type": "uint256"
        }
      ],
      "name": "transferFrom",
      "outputs": [
        {
          "internalType": "bool",
          "name": "",
          "type": "bool"
        }
      ],
      "stateMutability": "nonpayable",
      "type": "function"
    }
  ],
  "bytecode": "0x608060405234801561001057600080fd5b50604051611c19380380611c1983398101604081905261002f91610504565b600054610100900460ff161580801561004f5750600054600160ff909116105b806100695750303b158015610069575060005460ff166001145b6100d15760405162461bcd60e51b815260206004820152602e60248201527f496e697469616c697a61626c653a20636f6e747261637420697320616c72656160448201526d191e481a5b9a5d1a585b1a5e995960921b60648201526084015b60405180910390fd5b6000805460ff1916600117905580156100f4576000805461ff0019166101001790555b6100fc61018c565b61010683836101e7565b61010e61018c565b610126600080516020611bf98339815191528061024e565b61013e600080516020611bf983398151915233610299565b8015610184576000805461ff0019169055604051600181527f7f26b83ff96e1f2b6a682f133852f6798a09c465da95921460cefb38474024989060200160405180910390a15b5050506106b3565b600054610100900460ff166101e55760405162461bcd60e51b815260206004820152602b6024820152600080516020611bd983398151915260448201526a6e697469616c697a696e6760a81b60648201526084016100c8565b565b600054610100900460ff166102405760405162461bcd60e51b815260206004820152602b6024820152600080516020611bd983398151915260448201526a6e697469616c697a696e6760a81b60648201526084016100c8565b61024a82826102a3565b5050565b600082815260656020526040808220600101805490849055905190918391839186917fbd79b86ffe0ab8e8776151514217cd7cacd52c909f66475c3af44e129f0b00ff9190a4505050565b61024a828261031a565b600054610100900460ff166102fc5760405162461bcd60e51b815260206004820152602b6024820152600080516020611bd983398151915260448201526a6e697469616c697a696e6760a81b60648201526084016100c8565b60cc61030883826105f5565b5060cd61031582826105f5565b505050565b610324828261033c565b600082815260976020526040902061031590826103de565b60008281526065602090815260408083206001600160a01b038516845290915290205460ff1661024a5760008281526065602090815260408083206001600160a01b03851684529091529020805460ff1916600117905561039a3390565b6001600160a01b0316816001600160a01b0316837f2f8788117e7eff1d82e926ec794901d17c78024a50270940304540a733656f0d60405160405180910390a45050565b60006103f3836001600160a01b0384166103fc565b90505b92915050565b6000818152600183016020526040812054610443575081546001818101845560008481526020808220909301849055845484825282860190935260409020919091556103f6565b5060006103f6565b634e487b7160e01b600052604160045260246000fd5b600082601f83011261047257600080fd5b81516001600160401b0381111561048b5761048b61044b565b604051601f8201601f19908116603f011681016001600160401b03811182821017156104b9576104b961044b565b6040528181528382016020018510156104d157600080fd5b60005b828110156104f0576020818601810151838301820152016104d4565b506000918101602001919091529392505050565b6000806040838503121561051757600080fd5b82516001600160401b0381111561052d57600080fd5b61053985828601610461565b602085015190935090506001600160401b0381111561055757600080fd5b61056385828601610461565b9150509250929050565b600181811c9082168061058157607f821691505b6020821081036105a157634e487b7160e01b600052602260045260246000fd5b50919050565b601f82111561031557806000526020600020601f840160051c810160208510156105ce5750805b601f840160051c820191505b818110156105ee57600081556001016105da565b5050505050565b81516001600160401b0381111561060e5761060e61044b565b6106228161061c845461056d565b846105a7565b6020601f821160018114610656576000831561063e5750848201515b600019600385901b1c1916600184901b1784556105ee565b600084815260208120601f198516915b828110156106865787850151825560209485019460019092019101610666565b50848210156106a45786840151600019600387901b60f8161c191681555b50505050600190811b01905550565b611517806106c26000396000f3fe608060405234801561001057600080fd5b50600436106101585760003560e01c806370a08231116100c3578063a457c2d71161007c578063a457c2d7146102ef578063a9059cbb14610302578063ca15c87314610315578063d539139314610328578063d547741f1461034f578063dd62ed3e1461036257600080fd5b806370a082311461026557806379cc67901461028e5780639010d07c146102a157806391d14854146102cc57806395d89b41146102df578063a217fddf146102e757600080fd5b80632f2ff15d116101155780632f2ff15d146101f5578063313ce5671461020a57806336568abe14610219578063395093511461022c57806340c10f191461023f57806342966c681461025257600080fd5b806301ffc9a71461015d57806306fdde0314610185578063095ea7b31461019a57806318160ddd146101ad57806323b872dd146101bf578063248a9ca3146101d2575b600080fd5b61017061016b3660046111d6565b610375565b60405190151581526020015b60405180910390f35b61018d6103a0565b60405161017c9190611224565b6101706101a8366004611273565b610432565b60cb545b60405190815260200161017c565b6101706101cd36600461129d565b61044a565b6101b16101e03660046112da565b60009081526065602052604090206001015490565b6102086102033660046112f3565b61046e565b005b6040516012815260200161017c565b6102086102273660046112f3565b610498565b61017061023a366004611273565b61051b565b61020861024d366004611273565b61053d565b6102086102603660046112da565b6105b6565b6101b161027336600461131f565b6001600160a01b0316600090815260c9602052604090205490565b61020861029c366004611273565b6105c3565b6102b46102af36600461133a565b6105d8565b6040516001600160a01b03909116815260200161017c565b6101706102da3660046112f3565b6105f7565b61018d610622565b6101b1600081565b6101706102fd366004611273565b610631565b610170610310366004611273565b6106ac565b6101b16103233660046112da565b6106ba565b6101b17f9f2df0fed2c77648de5860a4cc508cd0818c85b8b8a1ab4ceeef8d981c8956a681565b61020861035d3660046112f3565b6106d1565b6101b161037036600461135c565b6106f6565b60006001600160e01b03198216635a05180f60e01b148061039a575061039a82610721565b92915050565b606060cc80546103af90611386565b80601f01602080910402602001604051908101604052809291908181526020018280546103db90611386565b80156104285780601f106103fd57610100808354040283529160200191610428565b820191906000526020600020905b81548152906001019060200180831161040b57829003601f168201915b5050505050905090565b600033610440818585610756565b5060019392505050565b60003361045885828561087a565b6104638585856108f4565b506001949350505050565b60008281526065602052604090206001015461048981610ac2565b6104938383610acc565b505050565b6001600160a01b038116331461050d5760405162461bcd60e51b815260206004820152602f60248201527f416363657373436f6e74726f6c3a2063616e206f6e6c792072656e6f756e636560448201526e103937b632b9903337b91039b2b63360891b60648201526084015b60405180910390fd5b6105178282610aee565b5050565b60003361044081858561052e83836106f6565b61053891906113d6565b610756565b6105677f9f2df0fed2c77648de5860a4cc508cd0818c85b8b8a1ab4ceeef8d981c8956a6336105f7565b6105ac5760405162461bcd60e51b815260206004820152601660248201527529b2b73232b91034b9903737ba10309026b4b73a32b960511b6044820152606401610504565b6105178282610b10565b6105c03382610bef565b50565b6105ce82338361087a565b6105178282610bef565b60008281526097602052604081206105f09083610d3d565b9392505050565b60009182526065602090815260408084206001600160a01b0393909316845291905290205460ff1690565b606060cd80546103af90611386565b6000338161063f82866106f6565b90508381101561069f5760405162461bcd60e51b815260206004820152602560248201527f45524332303a2064656372656173656420616c6c6f77616e63652062656c6f77604482015264207a65726f60d81b6064820152608401610504565b6104638286868403610756565b6000336104408185856108f4565b600081815260976020526040812061039a90610d49565b6000828152606560205260409020600101546106ec81610ac2565b6104938383610aee565b6001600160a01b03918216600090815260ca6020908152604080832093909416825291909152205490565b60006001600160e01b03198216637965db0b60e01b148061039a57506301ffc9a760e01b6001600160e01b031983161461039a565b6001600160a01b0383166107b85760405162461bcd60e51b8152602060048201526024808201527f45524332303a20617070726f76652066726f6d20746865207a65726f206164646044820152637265737360e01b6064820152608401610504565b6001600160a01b0382166108195760405162461bcd60e51b815260206004820152602260248201527f45524332303a20617070726f766520746f20746865207a65726f206164647265604482015261737360f01b6064820152608401610504565b6001600160a01b03838116600081815260ca602090815260408083209487168084529482529182902085905590518481527f8c5be1e5ebec7d5bd14f71427d1e84f3dd0314c0f7b2291e5b200ac8c7c3b925910160405180910390a3505050565b600061088684846106f6565b905060001981146108ee57818110156108e15760405162461bcd60e51b815260206004820152601d60248201527f45524332303a20696e73756666696369656e7420616c6c6f77616e63650000006044820152606401610504565b6108ee8484848403610756565b50505050565b6001600160a01b0383166109585760405162461bcd60e51b815260206004820152602560248201527f45524332303a207472616e736665722066726f6d20746865207a65726f206164604482015264647265737360d81b6064820152608401610504565b6001600160a01b0382166109ba5760405162461bcd60e51b815260206004820152602360248201527f45524332303a207472616e7366657220746f20746865207a65726f206164647260448201526265737360e81b6064820152608401610504565b6001600160a01b038316600090815260c9602052604090205481811015610a325760405162461bcd60e51b815260206004820152602660248201527f45524332303a207472616e7366657220616d6f756e7420657863656564732062604482015265616c616e636560d01b6064820152608401610504565b6001600160a01b03808516600090815260c96020526040808220858503905591851681529081208054849290610a699084906113d6565b92505081905550826001600160a01b0316846001600160a01b03167fddf252ad1be2c89b69c2b068fc378daa952ba7f163c4a11628f55a4df523b3ef84604051610ab591815260200190565b60405180910390a36108ee565b6105c08133610d53565b610ad68282610db7565b60008281526097602052604090206104939082610e3d565b610af88282610e52565b60008281526097602052604090206104939082610eb9565b6001600160a01b038216610b665760405162461bcd60e51b815260206004820152601f60248201527f45524332303a206d696e7420746f20746865207a65726f2061646472657373006044820152606401610504565b8060cb6000828254610b7891906113d6565b90915550506001600160a01b038216600090815260c9602052604081208054839290610ba59084906113d6565b90915550506040518181526001600160a01b038316906000907fddf252ad1be2c89b69c2b068fc378daa952ba7f163c4a11628f55a4df523b3ef9060200160405180910390a35050565b6001600160a01b038216610c4f5760405162461bcd60e51b815260206004820152602160248201527f45524332303a206275726e2066726f6d20746865207a65726f206164647265736044820152607360f81b6064820152608401610504565b6001600160a01b038216600090815260c9602052604090205481811015610cc35760405162461bcd60e51b815260206004820152602260248201527f45524332303a206275726e20616d6f756e7420657863656564732062616c616e604482015261636560f01b6064820152608401610504565b6001600160a01b038316600090815260c960205260408120838303905560cb8054849290610cf29084906113e9565b90915550506040518281526000906001600160a01b038516907fddf252ad1be2c89b69c2b068fc378daa952ba7f163c4a11628f55a4df523b3ef9060200160405180910390a3505050565b60006105f08383610ece565b600061039a825490565b610d5d82826105f7565b61051757610d75816001600160a01b03166014610ef8565b610d80836020610ef8565b604051602001610d919291906113fc565b60408051601f198184030181529082905262461bcd60e51b825261050491600401611224565b610dc182826105f7565b6105175760008281526065602090815260408083206001600160a01b03851684529091529020805460ff19166001179055610df93390565b6001600160a01b0316816001600160a01b0316837f2f8788117e7eff1d82e926ec794901d17c78024a50270940304540a733656f0d60405160405180910390a45050565b60006105f0836001600160a01b038416611094565b610e5c82826105f7565b156105175760008281526065602090815260408083206001600160a01b0385168085529252808320805460ff1916905551339285917ff6391f5c32d9c69d2a47ea670b442974b53935d1edc7fd64eb21e047a839171b9190a45050565b60006105f0836001600160a01b0384166110e3565b6000826000018281548110610ee557610ee5611471565b9060005260206000200154905092915050565b60606000610f07836002611487565b610f129060026113d6565b67ffffffffffffffff811115610f2a57610f2a61149e565b6040519080825280601f01601f191660200182016040528015610f54576020820181803683370190505b509050600360fc1b81600081518110610f6f57610f6f611471565b60200101906001600160f81b031916908160001a905350600f60fb1b81600181518110610f9e57610f9e611471565b60200101906001600160f81b031916908160001a9053506000610fc2846002611487565b610fcd9060016113d6565b90505b6001811115611045576f181899199a1a9b1b9c1cb0b131b232b360811b85600f166010811061100157611001611471565b1a60f81b82828151811061101757611017611471565b60200101906001600160f81b031916908160001a90535060049490941c9361103e816114b4565b9050610fd0565b5083156105f05760405162461bcd60e51b815260206004820181905260248201527f537472696e67733a20686578206c656e67746820696e73756666696369656e746044820152606401610504565b60008181526001830160205260408120546110db5750815460018181018455600084815260208082209093018490558454848252828601909352604090209190915561039a565b50600061039a565b600081815260018301602052604081205480156111cc5760006111076001836113e9565b855490915060009061111b906001906113e9565b905081811461118057600086600001828154811061113b5761113b611471565b906000526020600020015490508087600001848154811061115e5761115e611471565b6000918252602080832090910192909255918252600188019052604090208390555b8554869080611191576111916114cb565b60019003818190600052602060002001600090559055856001016000868152602001908152602001600020600090556001935050505061039a565b600091505061039a565b6000602082840312156111e857600080fd5b81356001600160e01b0319811681146105f057600080fd5b60005b8381101561121b578181015183820152602001611203565b50506000910152565b6020815260008251806020840152611243816040850160208701611200565b601f01601f19169190910160400192915050565b80356001600160a01b038116811461126e57600080fd5b919050565b6000806040838503121561128657600080fd5b61128f83611257565b946020939093013593505050565b6000806000606084860312156112b257600080fd5b6112bb84611257565b92506112c960208501611257565b929592945050506040919091013590565b6000602082840312156112ec57600080fd5b5035919050565b6000806040838503121561130657600080fd5b8235915061131660208401611257565b90509250929050565b60006020828403121561133157600080fd5b6105f082611257565b6000806040838503121561134d57600080fd5b50508035926020909101359150565b6000806040838503121561136f57600080fd5b61137883611257565b915061131660208401611257565b600181811c9082168061139a57607f821691505b6020821081036113ba57634e487b7160e01b600052602260045260246000fd5b50919050565b634e487b7160e01b600052601160045260246000fd5b8082018082111561039a5761039a6113c0565b8181038181111561039a5761039a6113c0565b7f416363657373436f6e74726f6c3a206163636f756e7420000000000000000000815260008351611434816017850160208801611200565b7001034b99036b4b9b9b4b733903937b6329607d1b6017918401918201528351611465816028840160208801611200565b01602801949350505050565b634e487b7160e01b600052603260045260246000fd5b808202811582820484141761039a5761039a6113c0565b634e487b7160e01b600052604160045260246000fd5b6000816114c3576114c36113c0565b506000190190565b634e487b7160e01b600052603160045260246000fdfea264697066735822122032b5556e7e45fe4a28e8592650b6c5af380611469e7adfcc8b51f996cf91edce64736f6c634300081b0033496e697469616c697a61626c653a20636f6e7472616374206973206e6f7420699f2df0fed2c77648de5860a4cc508cd0818c85b8b8a1ab4ceeef8d981c8956a6",
  "linkReferences": {},
  "deployedLinkReferences": {}
}