{
  "_format": "hh-sol-artifact-1",
  "contractName": "TokenManagerERC721",
  "sourceName": "contracts/schain/TokenManagers/TokenManagerERC721.sol",
  "abi": [
    {
      "anonymous": false,
      "inputs": [
        {
          "indexed": false,
          "internalType": "address",
          "name": "oldValue",
          "type": "address"
        },
        {
          "indexed": false,
          "internalType": "address",
          "name": "newValue",
          "type": "address"
        }
      ],
      "name": "DepositBoxWasChanged",
      "type": "event"
    },
    {
      "anonymous": false,
      "inputs": [
        {
          "indexed": true,
          "internalType": "SchainHash",
          "name": "chainHash",
          "type": "bytes32"
        },
        {
          "indexed": true,
          "internalType": "address",
          "name": "erc721OnMainChain",
          "type": "address"
        },
        {
          "indexed": true,
          "internalType": "address",
          "name": "erc721OnSchain",
          "type": "address"
        }
      ],
      "name": "ERC721TokenAdded",
      "type": "event"
    },
    {
      "anonymous": false,
      "inputs": [
        {
          "indexed": true,
          "internalType": "SchainHash",
          "name": "chainHash",
          "type": "bytes32"
        },
        {
          "indexed": true,
          "internalType": "address",
          "name": "erc721OnMainChain",
          "type": "address"
        },
        {
          "indexed": true,
          "internalType": "address",
          "name": "erc721OnSchain",
          "type": "address"
        }
      ],
      "name": "ERC721TokenCreated",
      "type": "event"
    },
    {
      "anonymous": false,
      "inputs": [
        {
          "indexed": true,
          "internalType": "SchainHash",
          "name": "chainHash",
          "type": "bytes32"
        },
        {
          "indexed": true,
          "internalType": "address",
          "name": "contractOnMainnet",
          "type": "address"
        },
        {
          "indexed": false,
          "internalType": "uint256",
          "name": "tokenId",
          "type": "uint256"
        }
      ],
      "name": "ERC721TokenReady",
      "type": "event"
    },
    {
      "anonymous": false,
      "inputs": [
        {
          "indexed": true,
          "internalType": "SchainHash",
          "name": "chainHash",
          "type": "bytes32"
        },
        {
          "indexed": true,
          "internalType": "address",
          "name": "erc721OnMainChain",
          "type": "address"
        },
        {
          "indexed": true,
          "internalType": "address",
          "name": "erc721OnSchain",
          "type": "address"
        },
        {
          "indexed": false,
          "internalType": "uint256",
          "name": "tokenId",
          "type": "uint256"
        }
      ],
      "name": "ERC721TokenReceived",
      "type": "event"
    },
    {
      "anonymous": false,
      "inputs": [
        {
          "indexed": false,
          "internalType": "uint8",
          "name": "version",
          "type": "uint8"
        }
      ],
      "name": "Initialized",
      "type": "event"
    },
    {
      "anonymous": false,
      "inputs": [
        {
          "indexed": true,
          "internalType": "bytes32",
          "name": "role",
          "type": "bytes32"
        },
        {
          "indexed": true,
          "internalType": "bytes32",
          "name": "previousAdminRole",
          "type": "bytes32"
        },
        {
          "indexed": true,
          "internalType": "bytes32",
          "name": "newAdminRole",
          "type": "bytes32"
        }
      ],
      "name": "RoleAdminChanged",
      "type": "event"
    },
    {
      "anonymous": false,
      "inputs": [
        {
          "indexed": true,
          "internalType": "bytes32",
          "name": "role",
          "type": "bytes32"
        },
        {
          "indexed": true,
          "internalType": "address",
          "name": "account",
          "type": "address"
        },
        {
          "indexed": true,
          "internalType": "address",
          "name": "sender",
          "type": "address"
        }
      ],
      "name": "RoleGranted",
      "type": "event"
    },
    {
      "anonymous": false,
      "inputs": [
        {
          "indexed": true,
          "internalType": "bytes32",
          "name": "role",
          "type": "bytes32"
        },
        {
          "indexed": true,
          "internalType": "address",
          "name": "account",
          "type": "address"
        },
        {
          "indexed": true,
          "internalType": "address",
          "name": "sender",
          "type": "address"
        }
      ],
      "name": "RoleRevoked",
      "type": "event"
    },
    {
      "inputs": [],
      "name": "AUTOMATIC_DEPLOY_ROLE",
      "outputs": [
        {
          "internalType": "bytes32",
          "name": "",
          "type": "bytes32"
        }
      ],
      "stateMutability": "view",
      "type": "function"
    },
    {
      "inputs": [],
      "name": "DEFAULT_ADMIN_ROLE",
      "outputs": [
        {
          "internalType": "bytes32",
          "name": "",
          "type": "bytes32"
        }
      ],
      "stateMutability": "view",
      "type": "function"
    },
    {
      "inputs": [],
      "name": "MAINNET_HASH",
      "outputs": [
        {
          "internalType": "SchainHash",
          "name": "",
          "type": "bytes32"
        }
      ],
      "stateMutability": "view",
      "type": "function"
    },
    {
      "inputs": [],
      "name": "MAINNET_NAME",
      "outputs": [
        {
          "internalType": "string",
          "name": "",
          "type": "string"
        }
      ],
      "stateMutability": "view",
      "type": "function"
    },
    {
      "inputs": [],
      "name": "TOKEN_REGISTRAR_ROLE",
      "outputs": [
        {
          "internalType": "bytes32",
          "name": "",
          "type": "bytes32"
        }
      ],
      "stateMutability": "view",
      "type": "function"
    },
    {
      "inputs": [
        {
          "internalType": "string",
          "name": "originChainName",
          "type": "string"
        },
        {
          "internalType": "address",
          "name": "erc721OnOriginChain",
          "type": "address"
        },
        {
          "internalType": "address",
          "name": "newErc721OnSchain",
          "type": "address"
        }
      ],
      "name": "addERC721TokenByOwner",
      "outputs": [],
      "stateMutability": "nonpayable",
      "type": "function"
    },
    {
      "inputs": [
        {
          "internalType": "string",
          "name": "schainName",
          "type": "string"
        },
        {
          "internalType": "address",
          "name": "newTokenManager",
          "type": "address"
        }
      ],
      "name": "addTokenManager",
      "outputs": [],
      "stateMutability": "nonpayable",
      "type": "function"
    },
    {
      "inputs": [
        {
          "internalType": "contract ERC721OnChain",
          "name": "",
          "type": "address"
        }
      ],
      "name": "addedClones",
      "outputs": [
        {
          "internalType": "bool",
          "name": "",
          "type": "bool"
        }
      ],
      "stateMutability": "view",
      "type": "function"
    },
    {
      "inputs": [],
      "name": "automaticDeploy",
      "outputs": [
        {
          "internalType": "bool",
          "name": "",
          "type": "bool"
        }
      ],
      "stateMutability": "view",
      "type": "function"
    },
    {
      "inputs": [
        {
          "internalType": "address",
          "name": "newDepositBox",
          "type": "address"
        }
      ],
      "name": "changeDepositBoxAddress",
      "outputs": [],
      "stateMutability": "nonpayable",
      "type": "function"
    },
    {
      "inputs": [
        {
          "internalType": "SchainHash",
          "name": "",
          "type": "bytes32"
        },
        {
          "internalType": "address",
          "name": "",
          "type": "address"
        }
      ],
      "name": "clonesErc721",
      "outputs": [
        {
          "internalType": "contract ERC721OnChain",
          "name": "",
          "type": "address"
        }
      ],
      "stateMutability": "view",
      "type": "function"
    },
    {
      "inputs": [],
      "name": "communityLocker",
      "outputs": [
        {
          "internalType": "contract ICommunityLocker",
          "name": "",
          "type": "address"
        }
      ],
      "stateMutability": "view",
      "type": "function"
    },
    {
      "inputs": [],
      "name": "depositBox",
      "outputs": [
        {
          "internalType": "address",
          "name": "",
          "type": "address"
        }
      ],
      "stateMutability": "view",
      "type": "function"
    },
    {
      "inputs": [
        {
          "internalType": "address",
          "name": "",
          "type": "address"
        }
      ],
      "name": "deprecatedClonesErc721",
      "outputs": [
        {
          "internalType": "contract ERC721OnChain",
          "name": "",
          "type": "address"
        }
      ],
      "stateMutability": "view",
      "type": "function"
    },
    {
      "inputs": [],
      "name": "disableAutomaticDeploy",
      "outputs": [],
      "stateMutability": "nonpayable",
      "type": "function"
    },
    {
      "inputs": [],
      "name": "enableAutomaticDeploy",
      "outputs": [],
      "stateMutability": "nonpayable",
      "type": "function"
    },
    {
      "inputs": [
        {
          "internalType": "address",
          "name": "contractOnMainnet",
          "type": "address"
        },
        {
          "internalType": "uint256",
          "name": "tokenId",
          "type": "uint256"
        }
      ],
      "name": "exitToMainERC721",
      "outputs": [],
      "stateMutability": "nonpayable",
      "type": "function"
    },
    {
      "inputs": [
        {
          "internalType": "bytes32",
          "name": "role",
          "type": "bytes32"
        }
      ],
      "name": "getRoleAdmin",
      "outputs": [
        {
          "internalType": "bytes32",
          "name": "",
          "type": "bytes32"
        }
      ],
      "stateMutability": "view",
      "type": "function"
    },
    {
      "inputs": [
        {
          "internalType": "bytes32",
          "name": "role",
          "type": "bytes32"
        },
        {
          "internalType": "uint256",
          "name": "index",
          "type": "uint256"
        }
      ],
      "name": "getRoleMember",
      "outputs": [
        {
          "internalType": "address",
          "name": "",
          "type": "address"
        }
      ],
      "stateMutability": "view",
      "type": "function"
    },
    {
      "inputs": [
        {
          "internalType": "bytes32",
          "name": "role",
          "type": "bytes32"
        }
      ],
      "name": "getRoleMemberCount",
      "outputs": [
        {
          "internalType": "uint256",
          "name": "",
          "type": "uint256"
        }
      ],
      "stateMutability": "view",
      "type": "function"
    },
    {
      "inputs": [
        {
          "internalType": "bytes32",
          "name": "role",
          "type": "bytes32"
        },
        {
          "internalType": "address",
          "name": "account",
          "type": "address"
        }
      ],
      "name": "grantRole",
      "outputs": [],
      "stateMutability": "nonpayable",
      "type": "function"
    },
    {
      "inputs": [
        {
          "internalType": "bytes32",
          "name": "role",
          "type": "bytes32"
        },
        {
          "internalType": "address",
          "name": "account",
          "type": "address"
        }
      ],
      "name": "hasRole",
      "outputs": [
        {
          "internalType": "bool",
          "name": "",
          "type": "bool"
        }
      ],
      "stateMutability": "view",
      "type": "function"
    },
    {
      "inputs": [
        {
          "internalType": "string",
          "name": "schainName",
          "type": "string"
        }
      ],
      "name": "hasTokenManager",
      "outputs": [
        {
          "internalType": "bool",
          "name": "",
          "type": "bool"
        }
      ],
      "stateMutability": "view",
      "type": "function"
    },
    {
      "inputs": [
        {
          "internalType": "string",
          "name": "newChainName",
          "type": "string"
        },
        {
          "internalType": "contract IMessageProxyForSchain",
          "name": "newMessageProxy",
          "type": "address"
        },
        {
          "internalType": "contract ITokenManagerLinker",
          "name": "newIMALinker",
          "type": "address"
        },
        {
          "internalType": "contract ICommunityLocker",
          "name": "newCommunityLocker",
          "type": "address"
        },
        {
          "internalType": "address",
          "name": "newDepositBox",
          "type": "address"
        }
      ],
      "name": "initialize",
      "outputs": [],
      "stateMutability": "nonpayable",
      "type": "function"
    },
    {
      "inputs": [
        {
          "internalType": "string",
          "name": "newSchainName",
          "type": "string"
        },
        {
          "internalType": "contract IMessageProxyForSchain",
          "name": "newMessageProxy",
          "type": "address"
        },
        {
          "internalType": "contract ITokenManagerLinker",
          "name": "newIMALinker",
          "type": "address"
        },
        {
          "internalType": "contract ICommunityLocker",
          "name": "newCommunityLocker",
          "type": "address"
        },
        {
          "internalType": "address",
          "name": "newDepositBox",
          "type": "address"
        }
      ],
      "name": "initializeTokenManager",
      "outputs": [],
      "stateMutability": "nonpayable",
      "type": "function"
    },
    {
      "inputs": [],
      "name": "messageProxy",
      "outputs": [
        {
          "internalType": "contract IMessageProxyForSchain",
          "name": "",
          "type": "address"
        }
      ],
      "stateMutability": "view",
      "type": "function"
    },
    {
      "inputs": [
        {
          "internalType": "SchainHash",
          "name": "fromChainHash",
          "type": "bytes32"
        },
        {
          "internalType": "address",
          "name": "sender",
          "type": "address"
        },
        {
          "internalType": "bytes",
          "name": "data",
          "type": "bytes"
        }
      ],
      "name": "postMessage",
      "outputs": [],
      "stateMutability": "nonpayable",
      "type": "function"
    },
    {
      "inputs": [
        {
          "internalType": "string",
          "name": "schainName",
          "type": "string"
        }
      ],
      "name": "removeTokenManager",
      "outputs": [],
      "stateMutability": "nonpayable",
      "type": "function"
    },
    {
      "inputs": [
        {
          "internalType": "bytes32",
          "name": "role",
          "type": "bytes32"
        },
        {
          "internalType": "address",
          "name": "account",
          "type": "address"
        }
      ],
      "name": "renounceRole",
      "outputs": [],
      "stateMutability": "nonpayable",
      "type": "function"
    },
    {
      "inputs": [
        {
          "internalType": "bytes32",
          "name": "role",
          "type": "bytes32"
        },
        {
          "internalType": "address",
          "name": "account",
          "type": "address"
        }
      ],
      "name": "revokeRole",
      "outputs": [],
      "stateMutability": "nonpayable",
      "type": "function"
    },
    {
      "inputs": [],
      "name": "schainHash",
      "outputs": [
        {
          "internalType": "SchainHash",
          "name": "",
          "type": "bytes32"
        }
      ],
      "stateMutability": "view",
      "type": "function"
    },
    {
      "inputs": [
        {
          "internalType": "bytes4",
          "name": "interfaceId",
          "type": "bytes4"
        }
      ],
      "name": "supportsInterface",
      "outputs": [
        {
          "internalType": "bool",
          "name": "",
          "type": "bool"
        }
      ],
      "stateMutability": "view",
      "type": "function"
    },
    {
      "inputs": [],
      "name": "tokenManagerLinker",
      "outputs": [
        {
          "internalType": "contract ITokenManagerLinker",
          "name": "",
          "type": "address"
        }
      ],
      "stateMutability": "view",
      "type": "function"
    },
    {
      "inputs": [
        {
          "internalType": "SchainHash",
          "name": "",
          "type": "bytes32"
        }
      ],
      "name": "tokenManagers",
      "outputs": [
        {
          "internalType": "address",
          "name": "",
          "type": "address"
        }
      ],
      "stateMutability": "view",
      "type": "function"
    },
    {
      "inputs": [
        {
          "internalType": "string",
          "name": "targetSchainName",
          "type": "string"
        },
        {
          "internalType": "address",
          "name": "contractOnMainnet",
          "type": "address"
        },
        {
          "internalType": "uint256",
          "name": "tokenId",
          "type": "uint256"
        }
      ],
      "name": "transferToSchainERC721",
      "outputs": [],
      "stateMutability": "nonpayable",
      "type": "function"
    },
    {
      "inputs": [
        {
          "internalType": "address",
          "name": "",
          "type": "address"
        },
        {
          "internalType": "uint256",
          "name": "",
          "type": "uint256"
        }
      ],
      "name": "transferredAmount",
      "outputs": [
        {
          "internalType": "SchainHash",
          "name": "",
          "type": "bytes32"
        }
      ],
      "stateMutability": "view",
      "type": "function"
    }
  ],
  "bytecode": "0x6080604052348015600f57600080fd5b506160188061001f6000396000f3fe608060405234801561001057600080fd5b506004361061021c5760003560e01c80636d61128611610125578063b9581c50116100ad578063cb703bff1161007c578063cb703bff1461051c578063cc5b715b1461052f578063d547741f14610556578063dec2deb614610569578063edcc12b51461057d57600080fd5b8063b9581c50146104ba578063c0e312dc146104c2578063ca15c873146104d5578063ca99be02146104e857600080fd5b80639010d07c116100f45780639010d07c1461044057806391d1485414610453578063a217fddf14610466578063aebaaca91461046e578063b4a0522b1461049157600080fd5b80636d611286146103f45780636d6c68e6146104075780636e81ae281461041a578063884cee5a1461042d57600080fd5b80632f2ff15d116101a85780633fa194ce116101775780633fa194ce1461037357806350f44280146103885780635573b8b6146103bb578063680ae2fe146103ce5780636ce681d2146103e157600080fd5b80632f2ff15d1461033157806336568abe1461034457806339927cf9146103575780633b690b6b1461036a57600080fd5b80630f1a8f74116101ef5780630f1a8f741461029f5780631e0594e3146102e0578063248a9ca3146102f357806328c5e182146103165780632dc151de1461031e57600080fd5b806301ffc9a714610221578063029996b8146102495780630b6c6723146102535780630b885ac31461028c575b600080fd5b61023461022f366004612c95565b610590565b60405190151581526020015b60405180910390f35b6102516105bb565b005b61027e610261366004612cd4565b60d260209081526000928352604080842090915290825290205481565b604051908152602001610240565b61025161029a366004612e0d565b61060d565b6102c86102ad366004612e96565b60ce602052600090815260409020546001600160a01b031681565b6040516001600160a01b039091168152602001610240565b6102516102ee366004612ef7565b610621565b61027e610301366004612e96565b60009081526065602052604090206001015490565b61027e6108aa565b60ca546102c8906001600160a01b031681565b61025161033f366004612f53565b6108f3565b610251610352366004612f53565b61091d565b610234610365366004612f83565b61099b565b61027e60cc5481565b61027e600080516020615fc383398151915281565b6103ae6040518060400160405280600781526020016613585a5b9b995d60ca1b81525081565b6040516102409190613014565b60c9546102c8906001600160a01b031681565b6102516103dc366004613027565b6109f6565b6102516103ef366004612e0d565b610cfc565b60cd546102c8906001600160a01b031681565b60cb546102c8906001600160a01b031681565b610251610428366004612cd4565b610f5c565b61025161043b36600461308e565b611068565b6102c861044e3660046130e9565b6111c6565b610234610461366004612f53565b6111e5565b61027e600081565b61023461047c36600461310b565b60d06020526000908152604090205460ff1681565b6102c861049f36600461310b565b60cf602052600090815260409020546001600160a01b031681565b610251611210565b6102516104d0366004612f83565b611253565b61027e6104e3366004612e96565b611368565b6102c86104f6366004612f53565b60d16020908152600092835260408084209091529082529020546001600160a01b031681565b61025161052a366004613128565b61137f565b61027e7ffda70c2cc66a36c14884ee85424961f51b1d92b4494751699b6d105b3bcbcba881565b610251610564366004612f53565b6114fb565b60cd5461023490600160a01b900460ff1681565b61025161058b36600461310b565b611520565b60006001600160e01b03198216635a05180f60e01b14806105b557506105b582611636565b92915050565b6105d3600080516020615fc3833981519152336111e5565b6105f85760405162461bcd60e51b81526004016105ef9061317e565b60405180910390fd5b60cd805460ff60a01b1916600160a01b179055565b61061a8585858585610cfc565b5050505050565b83838080601f016020809104026020016040519081016040528093929190818152602001838380828437600092018290525060405133945090925061066b915084906020016131bf565b60408051601f1981840301815282825280516020918201208383018352600784526613585a5b9b995d60ca1b8483015291519193506106cb9284926106b092016131bf565b60405160208183030381529060405280519060200120141590565b6107305760405162461bcd60e51b815260206004820152603060248201527f546869732066756e6374696f6e206973206e6f7420666f72207472616e73666560448201526f1c9c9a5b99c81d1bc813585a5b9b995d60821b60648201526084016105ef565b6001600160a01b0382166107865760405162461bcd60e51b815260206004820152601a60248201527f496e636f7272656374207265636569766572206164647265737300000000000060448201526064016105ef565b600081815260ce60205260409020546001600160a01b03166107ea5760405162461bcd60e51b815260206004820152601f60248201527f496e636f727265637420546f6b656e204d616e6167657220616464726573730060448201526064016105ef565b600087876040516020016107ff9291906131db565b60408051808303601f1901815290829052805160209091012060cb54632c98abc960e11b8352600483018290523360248401529092506001600160a01b031690635931579290604401600060405180830381600087803b15801561086257600080fd5b505af1158015610876573d6000803e3d6000fd5b505050600082815260ce60205260409020546108a0915082906001600160a01b031688338961166b565b5050505050505050565b6040518060400160405280600781526020016613585a5b9b995d60ca1b8152506040516020016108da91906131bf565b6040516020818303038152906040528051906020012081565b60008281526065602052604090206001015461090e81611a83565b6109188383611a90565b505050565b6001600160a01b038116331461098d5760405162461bcd60e51b815260206004820152602f60248201527f416363657373436f6e74726f6c3a2063616e206f6e6c792072656e6f756e636560448201526e103937b632b9903337b91039b2b63360891b60648201526084016105ef565b6109978282611ab2565b5050565b6000806001600160a01b031660ce600085856040516020016109be9291906131db565b60408051808303601f19018152918152815160209283012083529082019290925201600020546001600160a01b031614159392505050565b610a207ffda70c2cc66a36c14884ee85424961f51b1d92b4494751699b6d105b3bcbcba8336111e5565b610a6c5760405162461bcd60e51b815260206004820181905260248201527f544f4b454e5f5245474953545241525f524f4c4520697320726571756972656460448201526064016105ef565b60008484604051602001610a819291906131db565b60408051601f1981840301815290829052805160209091012060c954634ccd5cd560e11b83529092506001600160a01b03169063999ab9aa90610aca90889088906004016131eb565b602060405180830381865afa158015610ae7573d6000803e3d6000fd5b505050506040513d601f19601f82011682018060405250810190610b0b919061321a565b610b505760405162461bcd60e51b815260206004820152601660248201527510da185a5b881a5cc81b9bdd0818dbdb9b9958dd195960521b60448201526064016105ef565b6001600160a01b0382163b610ba75760405162461bcd60e51b815260206004820152601f60248201527f476976656e2061646472657373206973206e6f74206120636f6e74726163740060448201526064016105ef565b600081815260d1602090815260408083206001600160a01b0387811685529252909120541615610c125760405162461bcd60e51b8152602060048201526016602482015275436f756c64206e6f742072656c696e6b20636c6f6e6560501b60448201526064016105ef565b6001600160a01b038216600090815260d0602052604090205460ff1615610c7b5760405162461bcd60e51b815260206004820152601760248201527f436c6f6e652077617320616c726561647920616464656400000000000000000060448201526064016105ef565b600081815260d1602090815260408083206001600160a01b0387811680865291845282852080546001600160a01b031916918816918217905580855260d0909352818420805460ff1916600117905590519192909184917f11bec40858c3e219ac2d82dd307a6989e3ea72d1c463dfce7376c149d5ccf30c91a45050505050565b600054610100900460ff1615808015610d1c5750600054600160ff909116105b80610d365750303b158015610d36575060005460ff166001145b610d995760405162461bcd60e51b815260206004820152602e60248201527f496e697469616c697a61626c653a20636f6e747261637420697320616c72656160448201526d191e481a5b9a5d1a585b1a5e995960921b60648201526084016105ef565b6000805460ff191660011790558015610dbc576000805461ff0019166101001790555b6001600160a01b038216610e125760405162461bcd60e51b815260206004820181905260248201527f4465706f736974426f7820616464726573732068617320746f2062652073657460448201526064016105ef565b610e1a611ad4565b610e25600033611b41565b610e3d600080516020615fc383398151915233611b41565b610e677ffda70c2cc66a36c14884ee85424961f51b1d92b4494751699b6d105b3bcbcba833611b41565b85604051602001610e7891906131bf565b60408051601f19818403018152828252805160209182012060cc5560c980546001600160a01b038a81166001600160a01b03199283161790925560ca80548a841690831617905560cb805489841690831617905560cd8054928816929091168217905560008452908301527fc968af77923193016f61d74ba6827296db5e1f37ec4fab3ad1ef20e193395e59910160405180910390a18015610f54576000805461ff0019169055604051600181527f7f26b83ff96e1f2b6a682f133852f6798a09c465da95921460cefb38474024989060200160405180910390a15b505050505050565b60cb54604080518082018252600781526613585a5b9b995d60ca1b60208083019190915291516001600160a01b0390931692635931579292610f9f9291016131bf565b60408051601f198184030181529082905280516020909101206001600160e01b031960e084901b1682526004820152336024820152604401600060405180830381600087803b158015610ff157600080fd5b505af1158015611005573d6000803e3d6000fd5b505050506109976040518060400160405280600781526020016613585a5b9b995d60ca1b81525060405160200161103c91906131bf565b60408051601f19818403018152919052805160209091012060cd546001600160a01b031684338561166b565b60c9546001600160a01b031633146110c25760405162461bcd60e51b815260206004820152601c60248201527f53656e646572206973206e6f742061204d65737361676550726f78790000000060448201526064016105ef565b83836110d08260cc54141590565b80156110e157506110e18282611b4b565b61112d5760405162461bcd60e51b815260206004820152601b60248201527f526563656976657220636861696e20697320696e636f7272656374000000000060448201526064016105ef565b60006111398585611bd8565b90506000600682600e8111156111515761115161323c565b148061116e5750600582600e81111561116c5761116c61323c565b145b156111855761117e888787611c23565b90506108a0565b60405162461bcd60e51b815260206004820152601660248201527526b2b9b9b0b3b2aa3cb8329034b9903ab735b737bbb760511b60448201526064016105ef565b60008281526097602052604081206111de9083612164565b9392505050565b60009182526065602090815260408084206001600160a01b0393909316845291905290205460ff1690565b611228600080516020615fc3833981519152336111e5565b6112445760405162461bcd60e51b81526004016105ef9061317e565b60cd805460ff60a01b19169055565b60ca546001600160a01b031633148061127257506112726000336111e5565b6112b65760405162461bcd60e51b81526020600482015260156024820152742737ba1030baba3437b934bd32b21031b0b63632b960591b60448201526064016105ef565b600082826040516020016112cb9291906131db565b60408051601f198184030181529181528151602092830120600081815260ce9093529120549091506001600160a01b03166113485760405162461bcd60e51b815260206004820152601860248201527f546f6b656e204d616e61676572206973206e6f7420736574000000000000000060448201526064016105ef565b600090815260ce6020526040902080546001600160a01b03191690555050565b60008181526097602052604081206105b590612170565b60ca546001600160a01b031633148061139e575061139e6000336111e5565b6113e25760405162461bcd60e51b81526020600482015260156024820152742737ba1030baba3437b934bd32b21031b0b63632b960591b60448201526064016105ef565b600083836040516020016113f79291906131db565b60408051601f198184030181529181528151602092830120600081815260ce9093529120549091506001600160a01b0316156114755760405162461bcd60e51b815260206004820152601c60248201527f546f6b656e204d616e6167657220697320616c7265616479207365740000000060448201526064016105ef565b6001600160a01b0382166114cb5760405162461bcd60e51b815260206004820152601f60248201527f496e636f727265637420546f6b656e204d616e6167657220616464726573730060448201526064016105ef565b600090815260ce6020526040902080546001600160a01b0319166001600160a01b03929092169190911790555050565b60008281526065602052604090206001015461151681611a83565b6109188383611ab2565b61152b6000336111e5565b6115775760405162461bcd60e51b815260206004820152601e60248201527f44454641554c545f41444d494e5f524f4c45206973207265717569726564000060448201526064016105ef565b6001600160a01b0381166115cd5760405162461bcd60e51b815260206004820181905260248201527f4465706f736974426f7820616464726573732068617320746f2062652073657460448201526064016105ef565b60cd54604080516001600160a01b03928316815291831660208301527fc968af77923193016f61d74ba6827296db5e1f37ec4fab3ad1ef20e193395e59910160405180910390a160cd80546001600160a01b0319166001600160a01b0392909216919091179055565b60006001600160e01b03198216637965db0b60e01b14806105b557506301ffc9a760e01b6001600160e01b03198316146105b5565b600085815260d1602090815260408083206001600160a01b0380881685529252822054168061170557506001600160a01b038416600090815260d06020526040902054849060ff16156117005760405162461bcd60e51b815260206004820152601a60248201527f496e636f7272656374206d61696e20636861696e20746f6b656e00000000000060448201526064016105ef565b600191505b6001600160a01b0381163b61175c5760405162461bcd60e51b815260206004820152601860248201527f4e6f20746f6b656e20636c6f6e65206f6e2073636861696e000000000000000060448201526064016105ef565b60405163020604bf60e21b81526004810184905230906001600160a01b0383169063081812fc90602401602060405180830381865afa1580156117a3573d6000803e3d6000fd5b505050506040513d601f19601f820116820180604052508101906117c79190613252565b6001600160a01b03161461181d5760405162461bcd60e51b815260206004820152601860248201527f4e6f7420616c6c6f7765642045524337323120546f6b656e000000000000000060448201526064016105ef565b600061182a86868661217a565b9050821561195257611866886040518060400160405280600781526020016613585a5b9b995d60ca1b8152506040516020016106b091906131bf565b6118ce5760405162461bcd60e51b815260206004820152603360248201527f4d61696e20636861696e20746f6b656e20636f756c64206e6f74206265207472604482015272185b9cd9995c9959081d1bc813585a5b9b995d606a1b60648201526084016105ef565b6118da888333876121d9565b90506118e788838661227c565b6040516323b872dd60e01b8152336004820152306024820152604481018590526001600160a01b038316906323b872dd90606401600060405180830381600087803b15801561193557600080fd5b505af1158015611949573d6000803e3d6000fd5b50505050611a13565b6040516323b872dd60e01b8152336004820152306024820152604481018590526001600160a01b038316906323b872dd90606401600060405180830381600087803b1580156119a057600080fd5b505af11580156119b4573d6000803e3d6000fd5b5050604051630852cd8d60e31b8152600481018790526001600160a01b03851692506342966c689150602401600060405180830381600087803b1580156119fa57600080fd5b505af1158015611a0e573d6000803e3d6000fd5b505050505b60c954604051634a24490160e11b81526001600160a01b0390911690639448920290611a47908b908b90869060040161326f565b600060405180830381600087803b158015611a6157600080fd5b505af1158015611a75573d6000803e3d6000fd5b505050505050505050505050565b611a8d8133612322565b50565b611a9a8282612386565b6000828152609760205260409020610918908261240c565b611abc8282612421565b60008281526097602052604090206109189082612488565b600054610100900460ff16611b3f5760405162461bcd60e51b815260206004820152602b60248201527f496e697469616c697a61626c653a20636f6e7472616374206973206e6f74206960448201526a6e697469616c697a696e6760a81b60648201526084016105ef565b565b6109978282611a90565b6000611b9b836040518060400160405280600781526020016613585a5b9b995d60ca1b815250604051602001611b8191906131bf565b604051602081830303815290604052805190602001201490565b611bc157600083815260ce60205260409020546001600160a01b038381169116146111de565b5060cd546001600160a01b03908116911614919050565b600080611be783850185612e96565b9050611bf46020826132a2565b600003611c1757611c0f611c0a848381886132c4565b611bd8565b9150506105b5565b611c0f83850185613302565b600080611c308484611bd8565b90506000808080600585600e811115611c4b57611c4b61323c565b03611ca1576000611c5c898961249d565b60408082015160208084015160609094015160008f815260d183528481206001600160a01b03808816835293529390932054919850929650909450169150611e4f9050565b6000611cad8989612549565b905080600001516040015194508060000151602001519350806000015160600151925060d160008b81526020019081526020016000206000856001600160a01b03166001600160a01b0316815260200190815260200160002060009054906101000a90046001600160a01b0316915060006001600160a01b0316826001600160a01b031603611e4d5760cd54600160a01b900460ff16611d8f5760405162461bcd60e51b815260206004820152601c60248201527f4175746f6d61746963206465706c6f792069732064697361626c65640000000060448201526064016105ef565b6020808201518051910151604051611da690612c32565b611db192919061331d565b604051809103906000f080158015611dcd573d6000803e3d6000fd5b5060008b815260d1602090815260408083206001600160a01b0389811680865291845282852080546001600160a01b031916918716918217905580855260d0909352818420805460ff191660011790559051939550909290918d917f3db9e29b45c5fe72aaa0bdc4514d68a645660185a44637e9bc6f0b805ea770459190a45b505b600585600e811115611e6357611e6361323c565b148015611e9f5750611e9f896040518060400160405280600781526020016613585a5b9b995d60ca1b8152506040516020016106b091906131bf565b8015611ebe5750600089815260d360205260409020611ebe90846125e3565b15612047576001600160a01b0383163b611f1a5760405162461bcd60e51b815260206004820152601a60248201527f496e636f7272656374206d61696e20636861696e20746f6b656e00000000000060448201526064016105ef565b6040516331a9108f60e11b81526004810183905230906001600160a01b03851690636352211e90602401602060405180830381865afa158015611f61573d6000803e3d6000fd5b505050506040513d601f19601f82011682018060405250810190611f859190613252565b6001600160a01b031614611fcf5760405162461bcd60e51b8152602060048201526011602482015270125b98dbdc9c9958dd081d1bdad95b9259607a1b60448201526064016105ef565b611fda898484612605565b6040516323b872dd60e01b81523060048201526001600160a01b038581166024830152604482018490528416906323b872dd90606401600060405180830381600087803b15801561202a57600080fd5b505af115801561203e573d6000803e3d6000fd5b505050506120aa565b6040516340c10f1960e01b81526001600160a01b038581166004830152602482018490528216906340c10f1990604401600060405180830381600087803b15801561209157600080fd5b505af11580156120a5573d6000803e3d6000fd5b505050505b806001600160a01b0316836001600160a01b03168a7f2735a548eee1cda16c2df4c1a546c0376f3b3bb2ceca4966ef9d251fcbdd3c45856040516120f091815260200190565b60405180910390a460c95460405163e051116b60e01b81526001600160a01b0386811660048301529091169063e051116b90602401600060405180830381600087803b15801561213f57600080fd5b505af1158015612153573d6000803e3d6000fd5b50959b9a5050505050505050505050565b60006111de83836126b1565b60006105b5825490565b6040805160a08101825260056080820190815281526001600160a01b0380861660208084019190915290851682840152606080830185905292516121c091839101613395565b6040516020818303038152906040529150509392505050565b600084815260d360205260408120606091906121f590866125e3565b9050806122215761220686866126db565b61221a858585612215896127ec565b6128e4565b915061222f565b61222c85858561217a565b91505b846001600160a01b0316867fd0fe87fb12c7aa2b7f679256044123cb20de43059fb2ddbb4cc6556f217f29dc8560405161226b91815260200190565b60405180910390a350949350505050565b6001600160a01b038216600090815260d260209081526040808320848452909152902054156122fc5760405162461bcd60e51b815260206004820152602660248201527f546f6b656e2077617320616c7265616479207472616e7366657272656420746f6044820152651031b430b4b760d11b60648201526084016105ef565b6001600160a01b03909116600090815260d2602090815260408083209383529290522055565b61232c82826111e5565b61099757612344816001600160a01b03166014612955565b61234f836020612955565b6040516020016123609291906133a3565b60408051601f198184030181529082905262461bcd60e51b82526105ef91600401613014565b61239082826111e5565b6109975760008281526065602090815260408083206001600160a01b03851684529091529020805460ff191660011790556123c83390565b6001600160a01b0316816001600160a01b0316837f2f8788117e7eff1d82e926ec794901d17c78024a50270940304540a733656f0d60405160405180910390a45050565b60006111de836001600160a01b038416612af0565b61242b82826111e5565b156109975760008281526065602090815260408083206001600160a01b0385168085529252808320805460ff1916905551339285917ff6391f5c32d9c69d2a47ea670b442974b53935d1edc7fd64eb21e047a839171b9190a45050565b60006111de836001600160a01b038416612b3f565b6040805160a081018252600060808201818152825260208201819052918101829052606081019190915260056124d38484611bd8565b600e8111156124e4576124e461323c565b1461253d5760405162461bcd60e51b815260206004820152602360248201527f4d6573736167652074797065206973206e6f7420455243373231207472616e736044820152623332b960e91b60648201526084016105ef565b6111de828401846134b7565b612551612c3f565b600661255d8484611bd8565b600e81111561256e5761256e61323c565b146125d75760405162461bcd60e51b815260206004820152603360248201527f4d6573736167652074797065206973206e6f7420455243373231207472616e73604482015272666572207769746820746f6b656e20696e666f60681b60648201526084016105ef565b6111de828401846134d3565b6001600160a01b038116600090815260018301602052604081205415156111de565b6001600160a01b038216600090815260d26020908152604080832084845290915290205483146126885760405162461bcd60e51b815260206004820152602860248201527f546f6b656e2077617320616c7265616479207472616e7366657272656420667260448201526737b69031b430b4b760c11b60648201526084016105ef565b6001600160a01b03909116600090815260d2602090815260408083209383529290529081205550565b60008260000182815481106126c8576126c86135b9565b9060005260206000200154905092915050565b6001600160a01b0381163b6127325760405162461bcd60e51b815260206004820152601f60248201527f476976656e2061646472657373206973206e6f74206120636f6e74726163740060448201526064016105ef565b600082815260d36020526040902061274a90826125e3565b156127975760405162461bcd60e51b815260206004820152601e60248201527f45524337323120546f6b656e2077617320616c7265616479206164646564000060448201526064016105ef565b600082815260d3602052604090206127af908261240c565b506040516000906001600160a01b0383169084907f11bec40858c3e219ac2d82dd307a6989e3ea72d1c463dfce7376c149d5ccf30c908490a45050565b60408051808201909152606080825260208201526040518060400160405280836001600160a01b03166306fdde036040518163ffffffff1660e01b8152600401600060405180830381865afa158015612849573d6000803e3d6000fd5b505050506040513d6000823e601f3d908101601f1916820160405261287191908101906135cf565b8152602001836001600160a01b03166395d89b416040518163ffffffff1660e01b8152600401600060405180830381865afa1580156128b4573d6000803e3d6000fd5b505050506040513d6000823e601f3d908101601f191682016040526128dc91908101906135cf565b905292915050565b6040805160e081018252600660c082019081528183019081526001600160a01b03808816606080850191909152908716608084015260a0830186905290825260208083018590529251909261293b9183910161363c565b604051602081830303815290604052915050949350505050565b606060006129648360026136a7565b61296f9060026136be565b6001600160401b0381111561298657612986612d00565b6040519080825280601f01601f1916602001820160405280156129b0576020820181803683370190505b509050600360fc1b816000815181106129cb576129cb6135b9565b60200101906001600160f81b031916908160001a905350600f60fb1b816001815181106129fa576129fa6135b9565b60200101906001600160f81b031916908160001a9053506000612a1e8460026136a7565b612a299060016136be565b90505b6001811115612aa1576f181899199a1a9b1b9c1cb0b131b232b360811b85600f1660108110612a5d57612a5d6135b9565b1a60f81b828281518110612a7357612a736135b9565b60200101906001600160f81b031916908160001a90535060049490941c93612a9a816136d1565b9050612a2c565b5083156111de5760405162461bcd60e51b815260206004820181905260248201527f537472696e67733a20686578206c656e67746820696e73756666696369656e7460448201526064016105ef565b6000818152600183016020526040812054612b37575081546001818101845560008481526020808220909301849055845484825282860190935260409020919091556105b5565b5060006105b5565b60008181526001830160205260408120548015612c28576000612b636001836136e8565b8554909150600090612b77906001906136e8565b9050818114612bdc576000866000018281548110612b9757612b976135b9565b9060005260206000200154905080876000018481548110612bba57612bba6135b9565b6000918252602080832090910192909255918252600188019052604090208390555b8554869080612bed57612bed6136fb565b6001900381819060005260206000200160009055905585600101600086815260200190815260200160002060009055600193505050506105b5565b60009150506105b5565b6128b18061371283390190565b6040805160e081018252600060c08201818152928201928352606082018190526080820181905260a08201529081908152602001612c90604051806040016040528060608152602001606081525090565b905290565b600060208284031215612ca757600080fd5b81356001600160e01b0319811681146111de57600080fd5b6001600160a01b0381168114611a8d57600080fd5b60008060408385031215612ce757600080fd5b8235612cf281612cbf565b946020939093013593505050565b634e487b7160e01b600052604160045260246000fd5b604051602081016001600160401b0381118282101715612d3857612d38612d00565b60405290565b604080519081016001600160401b0381118282101715612d3857612d38612d00565b604051601f8201601f191681016001600160401b0381118282101715612d8857612d88612d00565b604052919050565b60006001600160401b03821115612da957612da9612d00565b50601f01601f191660200190565b600082601f830112612dc857600080fd5b8135612ddb612dd682612d90565b612d60565b818152846020838601011115612df057600080fd5b816020850160208301376000918101602001919091529392505050565b600080600080600060a08688031215612e2557600080fd5b85356001600160401b03811115612e3b57600080fd5b612e4788828901612db7565b9550506020860135612e5881612cbf565b93506040860135612e6881612cbf565b92506060860135612e7881612cbf565b91506080860135612e8881612cbf565b809150509295509295909350565b600060208284031215612ea857600080fd5b5035919050565b60008083601f840112612ec157600080fd5b5081356001600160401b03811115612ed857600080fd5b602083019150836020828501011115612ef057600080fd5b9250929050565b60008060008060608587031215612f0d57600080fd5b84356001600160401b03811115612f2357600080fd5b612f2f87828801612eaf565b9095509350506020850135612f4381612cbf565b9396929550929360400135925050565b60008060408385031215612f6657600080fd5b823591506020830135612f7881612cbf565b809150509250929050565b60008060208385031215612f9657600080fd5b82356001600160401b03811115612fac57600080fd5b612fb885828601612eaf565b90969095509350505050565b60005b83811015612fdf578181015183820152602001612fc7565b50506000910152565b60008151808452613000816020860160208601612fc4565b601f01601f19169290920160200192915050565b6020815260006111de6020830184612fe8565b6000806000806060858703121561303d57600080fd5b84356001600160401b0381111561305357600080fd5b61305f87828801612eaf565b909550935050602085013561307381612cbf565b9150604085013561308381612cbf565b939692955090935050565b600080600080606085870312156130a457600080fd5b8435935060208501356130b681612cbf565b925060408501356001600160401b038111156130d157600080fd5b6130dd87828801612eaf565b95989497509550505050565b600080604083850312156130fc57600080fd5b50508035926020909101359150565b60006020828403121561311d57600080fd5b81356111de81612cbf565b60008060006040848603121561313d57600080fd5b83356001600160401b0381111561315357600080fd5b61315f86828701612eaf565b909450925050602084013561317381612cbf565b809150509250925092565b60208082526021908201527f4155544f4d415449435f4445504c4f595f524f4c4520697320726571756972656040820152601960fa1b606082015260800190565b600082516131d1818460208701612fc4565b9190910192915050565b8183823760009101908152919050565b60208152816020820152818360408301376000818301604090810191909152601f909201601f19160101919050565b60006020828403121561322c57600080fd5b815180151581146111de57600080fd5b634e487b7160e01b600052602160045260246000fd5b60006020828403121561326457600080fd5b81516111de81612cbf565b8381526001600160a01b038316602082015260606040820181905260009061329990830184612fe8565b95945050505050565b6000826132bf57634e487b7160e01b600052601260045260246000fd5b500690565b600080858511156132d457600080fd5b838611156132e157600080fd5b5050820193919092039150565b8035600f81106132fd57600080fd5b919050565b60006020828403121561331457600080fd5b6111de826132ee565b6040815260006133306040830185612fe8565b82810360208401526132998185612fe8565b805151600f811061336357634e487b7160e01b600052602160045260246000fd5b82526020818101516001600160a01b039081169184019190915260408083015190911690830152606090810151910152565b608081016105b58284613342565b7f416363657373436f6e74726f6c3a206163636f756e74200000000000000000008152600083516133db816017850160208801612fc4565b7001034b99036b4b9b9b4b733903937b6329607d1b601791840191820152835161340c816028840160208801612fc4565b01602801949350505050565b6000818303608081121561342b57600080fd5b604051608081016001600160401b038111828210171561344d5761344d612d00565b604052915081602082121561346157600080fd5b613469612d16565b9150613474846132ee565b825290815260208301359061348882612cbf565b8160208201526040840135915061349e82612cbf565b6040810191909152606092830135920191909152919050565b6000608082840312156134c957600080fd5b6111de8383613418565b6000602082840312156134e557600080fd5b81356001600160401b038111156134fb57600080fd5b820160a0818503121561350d57600080fd5b613515612d3e565b61351f8583613418565b815260808201356001600160401b0381111561353a57600080fd5b91909101906040828603121561354f57600080fd5b613557612d3e565b82356001600160401b0381111561356d57600080fd5b61357987828601612db7565b82525060208301356001600160401b0381111561359557600080fd5b6135a187828601612db7565b60208301525080602083015250809250505092915050565b634e487b7160e01b600052603260045260246000fd5b6000602082840312156135e157600080fd5b81516001600160401b038111156135f757600080fd5b8201601f8101841361360857600080fd5b8051613616612dd682612d90565b81815285602083850101111561362b57600080fd5b613299826020830160208601612fc4565b6020815261364e602082018351613342565b6000602083015160a0808401528051604060c0850152613672610100850182612fe8565b90506020820151915060bf198482030160e08501526132998183612fe8565b634e487b7160e01b600052601160045260246000fd5b80820281158282048414176105b5576105b5613691565b808201808211156105b5576105b5613691565b6000816136e0576136e0613691565b506000190190565b818103818111156105b5576105b5613691565b634e487b7160e01b600052603160045260246000fdfe608060405234801561001057600080fd5b506040516128b13803806128b183398101604081905261002f91610504565b600054610100900460ff161580801561004f5750600054600160ff909116105b806100695750303b158015610069575060005460ff166001145b6100d15760405162461bcd60e51b815260206004820152602e60248201527f496e697469616c697a61626c653a20636f6e747261637420697320616c72656160448201526d191e481a5b9a5d1a585b1a5e995960921b60648201526084015b60405180910390fd5b6000805460ff1916600117905580156100f4576000805461ff0019166101001790555b6100fc61018c565b61010683836101e7565b61010e61018c565b6101266000805160206128918339815191528061024e565b61013e60008051602061289183398151915233610299565b8015610184576000805461ff0019169055604051600181527f7f26b83ff96e1f2b6a682f133852f6798a09c465da95921460cefb38474024989060200160405180910390a15b5050506106b3565b600054610100900460ff166101e55760405162461bcd60e51b815260206004820152602b602482015260008051602061287183398151915260448201526a6e697469616c697a696e6760a81b60648201526084016100c8565b565b600054610100900460ff166102405760405162461bcd60e51b815260206004820152602b602482015260008051602061287183398151915260448201526a6e697469616c697a696e6760a81b60648201526084016100c8565b61024a82826102a3565b5050565b600082815260656020526040808220600101805490849055905190918391839186917fbd79b86ffe0ab8e8776151514217cd7cacd52c909f66475c3af44e129f0b00ff9190a4505050565b61024a828261031a565b600054610100900460ff166102fc5760405162461bcd60e51b815260206004820152602b602482015260008051602061287183398151915260448201526a6e697469616c697a696e6760a81b60648201526084016100c8565b60c961030883826105f5565b5060ca61031582826105f5565b505050565b610324828261033c565b600082815260976020526040902061031590826103de565b60008281526065602090815260408083206001600160a01b038516845290915290205460ff1661024a5760008281526065602090815260408083206001600160a01b03851684529091529020805460ff1916600117905561039a3390565b6001600160a01b0316816001600160a01b0316837f2f8788117e7eff1d82e926ec794901d17c78024a50270940304540a733656f0d60405160405180910390a45050565b60006103f3836001600160a01b0384166103fc565b90505b92915050565b6000818152600183016020526040812054610443575081546001818101845560008481526020808220909301849055845484825282860190935260409020919091556103f6565b5060006103f6565b634e487b7160e01b600052604160045260246000fd5b600082601f83011261047257600080fd5b81516001600160401b0381111561048b5761048b61044b565b604051601f8201601f19908116603f011681016001600160401b03811182821017156104b9576104b961044b565b6040528181528382016020018510156104d157600080fd5b60005b828110156104f0576020818601810151838301820152016104d4565b506000918101602001919091529392505050565b6000806040838503121561051757600080fd5b82516001600160401b0381111561052d57600080fd5b61053985828601610461565b602085015190935090506001600160401b0381111561055757600080fd5b61056385828601610461565b9150509250929050565b600181811c9082168061058157607f821691505b6020821081036105a157634e487b7160e01b600052602260045260246000fd5b50919050565b601f82111561031557806000526020600020601f840160051c810160208510156105ce5750805b601f840160051c820191505b818110156105ee57600081556001016105da565b5050505050565b81516001600160401b0381111561060e5761060e61044b565b6106228161061c845461056d565b846105a7565b6020601f821160018114610656576000831561063e5750848201515b600019600385901b1c1916600184901b1784556105ee565b600084815260208120601f198516915b828110156106865787850151825560209485019460019092019101610666565b50848210156106a45786840151600019600387901b60f8161c191681555b50505050600190811b01905550565b6121af806106c26000396000f3fe608060405234801561001057600080fd5b50600436106101735760003560e01c80636352211e116100de578063a22cb46511610097578063ca15c87311610071578063ca15c87314610340578063d539139314610353578063d547741f1461037a578063e985e9c51461038d57600080fd5b8063a22cb46514610307578063b88d4fde1461031a578063c87b56dd1461032d57600080fd5b80636352211e146102ab57806370a08231146102be5780639010d07c146102d157806391d14854146102e457806395d89b41146102f7578063a217fddf146102ff57600080fd5b8063248a9ca311610130578063248a9ca31461021b5780632f2ff15d1461024c57806336568abe1461025f57806340c10f191461027257806342842e0e1461028557806342966c681461029857600080fd5b806301ffc9a71461017857806306fdde03146101a0578063081812fc146101b5578063095ea7b3146101e0578063162094c4146101f557806323b872dd14610208575b600080fd5b61018b610186366004611a44565b6103c9565b60405190151581526020015b60405180910390f35b6101a86103da565b6040516101979190611ab1565b6101c86101c3366004611ac4565b61046c565b6040516001600160a01b039091168152602001610197565b6101f36101ee366004611af9565b610493565b005b61018b610203366004611b23565b6105ad565b6101f3610216366004611ba1565b6106d9565b61023e610229366004611ac4565b60009081526065602052604090206001015490565b604051908152602001610197565b6101f361025a366004611bde565b61070b565b6101f361026d366004611bde565b610730565b6101f3610280366004611af9565b6107ae565b6101f3610293366004611ba1565b610827565b6101f36102a6366004611ac4565b610842565b6101c86102b9366004611ac4565b610873565b61023e6102cc366004611c0a565b6108d3565b6101c86102df366004611c25565b610959565b61018b6102f2366004611bde565b610978565b6101a86109a3565b61023e600081565b6101f3610315366004611c47565b6109b2565b6101f3610328366004611c99565b6109bd565b6101a861033b366004611ac4565b6109f5565b61023e61034e366004611ac4565b610a00565b61023e7f9f2df0fed2c77648de5860a4cc508cd0818c85b8b8a1ab4ceeef8d981c8956a681565b6101f3610388366004611bde565b610a17565b61018b61039b366004611d7d565b6001600160a01b03918216600090815260ce6020908152604080832093909416825291909152205460ff1690565b60006103d482610a3c565b92915050565b606060c980546103e990611da7565b80601f016020809104026020016040519081016040528092919081815260200182805461041590611da7565b80156104625780601f1061043757610100808354040283529160200191610462565b820191906000526020600020905b81548152906001019060200180831161044557829003601f168201915b5050505050905090565b600061047782610a7c565b50600090815260cd60205260409020546001600160a01b031690565b600061049e82610873565b9050806001600160a01b0316836001600160a01b0316036105105760405162461bcd60e51b815260206004820152602160248201527f4552433732313a20617070726f76616c20746f2063757272656e74206f776e656044820152603960f91b60648201526084015b60405180910390fd5b336001600160a01b038216148061052c575061052c813361039b565b61059e5760405162461bcd60e51b815260206004820152603e60248201527f4552433732313a20617070726f76652063616c6c6572206973206e6f7420746f60448201527f6b656e206f776e6572206e6f7220617070726f76656420666f7220616c6c00006064820152608401610507565b6105a88383610adb565b505050565b600083815260cb60205260408120546001600160a01b03166106095760405162461bcd60e51b8152602060048201526015602482015274546f6b656e20646f6573206e6f742065786973747360581b6044820152606401610507565b6106133385610b49565b8061064357506106437f9f2df0fed2c77648de5860a4cc508cd0818c85b8b8a1ab4ceeef8d981c8956a633610978565b61068f5760405162461bcd60e51b815260206004820152601c60248201527f53656e6465722063616e206e6f742073657420746f6b656e20555249000000006044820152606401610507565b6106cf8484848080601f016020809104026020016040519081016040528093929190818152602001838380828437600092019190915250610bc892505050565b5060019392505050565b6106e4335b82610b49565b6107005760405162461bcd60e51b815260040161050790611de1565b6105a8838383610c5c565b60008281526065602052604090206001015461072681610df8565b6105a88383610e02565b6001600160a01b03811633146107a05760405162461bcd60e51b815260206004820152602f60248201527f416363657373436f6e74726f6c3a2063616e206f6e6c792072656e6f756e636560448201526e103937b632b9903337b91039b2b63360891b6064820152608401610507565b6107aa8282610e24565b5050565b6107d87f9f2df0fed2c77648de5860a4cc508cd0818c85b8b8a1ab4ceeef8d981c8956a633610978565b61081d5760405162461bcd60e51b815260206004820152601660248201527529b2b73232b91034b9903737ba10309026b4b73a32b960511b6044820152606401610507565b6107aa8282610e46565b6105a8838383604051806020016040528060008152506109bd565b61084b336106de565b6108675760405162461bcd60e51b815260040161050790611de1565b61087081610f88565b50565b600081815260cb60205260408120546001600160a01b0316806103d45760405162461bcd60e51b8152602060048201526018602482015277115490cdcc8c4e881a5b9d985b1a59081d1bdad95b88125160421b6044820152606401610507565b60006001600160a01b03821661093d5760405162461bcd60e51b815260206004820152602960248201527f4552433732313a2061646472657373207a65726f206973206e6f7420612076616044820152683634b21037bbb732b960b91b6064820152608401610507565b506001600160a01b0316600090815260cc602052604090205490565b60008281526097602052604081206109719083610f91565b9392505050565b60009182526065602090815260408084206001600160a01b0393909316845291905290205460ff1690565b606060ca80546103e990611da7565b6107aa338383610f9d565b6109c73383610b49565b6109e35760405162461bcd60e51b815260040161050790611de1565b6109ef8484848461106b565b50505050565b60606103d48261109e565b60008181526097602052604081206103d4906111a7565b600082815260656020526040902060010154610a3281610df8565b6105a88383610e24565b60006001600160e01b031982166380ac58cd60e01b1480610a6d57506001600160e01b03198216635b5e139f60e01b145b806103d457506103d4826111b1565b600081815260cb60205260409020546001600160a01b03166108705760405162461bcd60e51b8152602060048201526018602482015277115490cdcc8c4e881a5b9d985b1a59081d1bdad95b88125160421b6044820152606401610507565b600081815260cd6020526040902080546001600160a01b0319166001600160a01b0384169081179091558190610b1082610873565b6001600160a01b03167f8c5be1e5ebec7d5bd14f71427d1e84f3dd0314c0f7b2291e5b200ac8c7c3b92560405160405180910390a45050565b600080610b5583610873565b9050806001600160a01b0316846001600160a01b03161480610b9c57506001600160a01b03808216600090815260ce602090815260408083209388168352929052205460ff165b80610bc05750836001600160a01b0316610bb58461046c565b6001600160a01b0316145b949350505050565b600082815260cb60205260409020546001600160a01b0316610c435760405162461bcd60e51b815260206004820152602e60248201527f45524337323155524953746f726167653a2055524920736574206f66206e6f6e60448201526d32bc34b9ba32b73a103a37b5b2b760911b6064820152608401610507565b600082815261012d602052604090206105a88282611e7d565b826001600160a01b0316610c6f82610873565b6001600160a01b031614610cd35760405162461bcd60e51b815260206004820152602560248201527f4552433732313a207472616e736665722066726f6d20696e636f72726563742060448201526437bbb732b960d91b6064820152608401610507565b6001600160a01b038216610d355760405162461bcd60e51b8152602060048201526024808201527f4552433732313a207472616e7366657220746f20746865207a65726f206164646044820152637265737360e01b6064820152608401610507565b610d40600082610adb565b6001600160a01b038316600090815260cc60205260408120805460019290610d69908490611f52565b90915550506001600160a01b038216600090815260cc60205260408120805460019290610d97908490611f65565b9091555050600081815260cb602052604080822080546001600160a01b0319166001600160a01b0386811691821790925591518493918716917fddf252ad1be2c89b69c2b068fc378daa952ba7f163c4a11628f55a4df523b3ef91a4505050565b61087081336111d6565b610e0c828261123a565b60008281526097602052604090206105a890826112c0565b610e2e82826112d5565b60008281526097602052604090206105a8908261133c565b6001600160a01b038216610e9c5760405162461bcd60e51b815260206004820181905260248201527f4552433732313a206d696e7420746f20746865207a65726f20616464726573736044820152606401610507565b600081815260cb60205260409020546001600160a01b031615610f015760405162461bcd60e51b815260206004820152601c60248201527f4552433732313a20746f6b656e20616c7265616479206d696e746564000000006044820152606401610507565b6001600160a01b038216600090815260cc60205260408120805460019290610f2a908490611f65565b9091555050600081815260cb602052604080822080546001600160a01b0319166001600160a01b03861690811790915590518392907fddf252ad1be2c89b69c2b068fc378daa952ba7f163c4a11628f55a4df523b3ef908290a45050565b61087081611351565b60006109718383611393565b816001600160a01b0316836001600160a01b031603610ffe5760405162461bcd60e51b815260206004820152601960248201527f4552433732313a20617070726f766520746f2063616c6c6572000000000000006044820152606401610507565b6001600160a01b03838116600081815260ce6020908152604080832094871680845294825291829020805460ff191686151590811790915591519182527f17307eab39ab6107e8899845ad3d59bd9653f200f220920489ca2b5937696c31910160405180910390a3505050565b611076848484610c5c565b611082848484846113bd565b6109ef5760405162461bcd60e51b815260040161050790611f78565b60606110a982610a7c565b600082815261012d6020526040812080546110c390611da7565b80601f01602080910402602001604051908101604052809291908181526020018280546110ef90611da7565b801561113c5780601f106111115761010080835404028352916020019161113c565b820191906000526020600020905b81548152906001019060200180831161111f57829003601f168201915b50505050509050600061115a60408051602081019091526000815290565b9050805160000361116c575092915050565b81511561119e578082604051602001611186929190611fca565b60405160208183030381529060405292505050919050565b610bc0846114be565b60006103d4825490565b60006001600160e01b03198216635a05180f60e01b14806103d457506103d482611531565b6111e08282610978565b6107aa576111f8816001600160a01b03166014611566565b611203836020611566565b604051602001611214929190611ff9565b60408051601f198184030181529082905262461bcd60e51b825261050791600401611ab1565b6112448282610978565b6107aa5760008281526065602090815260408083206001600160a01b03851684529091529020805460ff1916600117905561127c3390565b6001600160a01b0316816001600160a01b0316837f2f8788117e7eff1d82e926ec794901d17c78024a50270940304540a733656f0d60405160405180910390a45050565b6000610971836001600160a01b038416611702565b6112df8282610978565b156107aa5760008281526065602090815260408083206001600160a01b0385168085529252808320805460ff1916905551339285917ff6391f5c32d9c69d2a47ea670b442974b53935d1edc7fd64eb21e047a839171b9190a45050565b6000610971836001600160a01b038416611751565b61135a81611844565b600081815261012d60205260409020805461137490611da7565b15905061087057600081815261012d60205260408120610870916119e0565b60008260000182815481106113aa576113aa61206e565b9060005260206000200154905092915050565b60006001600160a01b0384163b156114b357604051630a85bd0160e11b81526001600160a01b0385169063150b7a0290611401903390899088908890600401612084565b6020604051808303816000875af192505050801561143c575060408051601f3d908101601f19168201909252611439918101906120c1565b60015b611499573d80801561146a576040519150601f19603f3d011682016040523d82523d6000602084013e61146f565b606091505b5080516000036114915760405162461bcd60e51b815260040161050790611f78565b805181602001fd5b6001600160e01b031916630a85bd0160e11b149050610bc0565b506001949350505050565b60606114c982610a7c565b60006114e060408051602081019091526000815290565b905060008151116115005760405180602001604052806000815250610971565b8061150a846118df565b60405160200161151b929190611fca565b6040516020818303038152906040529392505050565b60006001600160e01b03198216637965db0b60e01b14806103d457506301ffc9a760e01b6001600160e01b03198316146103d4565b606060006115758360026120de565b611580906002611f65565b67ffffffffffffffff81111561159857611598611c83565b6040519080825280601f01601f1916602001820160405280156115c2576020820181803683370190505b509050600360fc1b816000815181106115dd576115dd61206e565b60200101906001600160f81b031916908160001a905350600f60fb1b8160018151811061160c5761160c61206e565b60200101906001600160f81b031916908160001a90535060006116308460026120de565b61163b906001611f65565b90505b60018111156116b3576f181899199a1a9b1b9c1cb0b131b232b360811b85600f166010811061166f5761166f61206e565b1a60f81b8282815181106116855761168561206e565b60200101906001600160f81b031916908160001a90535060049490941c936116ac816120f5565b905061163e565b5083156109715760405162461bcd60e51b815260206004820181905260248201527f537472696e67733a20686578206c656e67746820696e73756666696369656e746044820152606401610507565b6000818152600183016020526040812054611749575081546001818101845560008481526020808220909301849055845484825282860190935260409020919091556103d4565b5060006103d4565b6000818152600183016020526040812054801561183a576000611775600183611f52565b855490915060009061178990600190611f52565b90508181146117ee5760008660000182815481106117a9576117a961206e565b90600052602060002001549050808760000184815481106117cc576117cc61206e565b6000918252602080832090910192909255918252600188019052604090208390555b85548690806117ff576117ff61210c565b6001900381819060005260206000200160009055905585600101600086815260200190815260200160002060009055600193505050506103d4565b60009150506103d4565b600061184f82610873565b905061185c600083610adb565b6001600160a01b038116600090815260cc60205260408120805460019290611885908490611f52565b9091555050600082815260cb602052604080822080546001600160a01b0319169055518391906001600160a01b038416907fddf252ad1be2c89b69c2b068fc378daa952ba7f163c4a11628f55a4df523b3ef908390a45050565b6060816000036119065750506040805180820190915260018152600360fc1b602082015290565b8160005b8115611930578061191a81612122565b91506119299050600a83612151565b915061190a565b60008167ffffffffffffffff81111561194b5761194b611c83565b6040519080825280601f01601f191660200182016040528015611975576020820181803683370190505b5090505b8415610bc05761198a600183611f52565b9150611997600a86612165565b6119a2906030611f65565b60f81b8183815181106119b7576119b761206e565b60200101906001600160f81b031916908160001a9053506119d9600a86612151565b9450611979565b5080546119ec90611da7565b6000825580601f106119fc575050565b601f01602090049060005260206000209081019061087091905b80821115611a2a5760008155600101611a16565b5090565b6001600160e01b03198116811461087057600080fd5b600060208284031215611a5657600080fd5b813561097181611a2e565b60005b83811015611a7c578181015183820152602001611a64565b50506000910152565b60008151808452611a9d816020860160208601611a61565b601f01601f19169290920160200192915050565b6020815260006109716020830184611a85565b600060208284031215611ad657600080fd5b5035919050565b80356001600160a01b0381168114611af457600080fd5b919050565b60008060408385031215611b0c57600080fd5b611b1583611add565b946020939093013593505050565b600080600060408486031215611b3857600080fd5b83359250602084013567ffffffffffffffff811115611b5657600080fd5b8401601f81018613611b6757600080fd5b803567ffffffffffffffff811115611b7e57600080fd5b866020828401011115611b9057600080fd5b939660209190910195509293505050565b600080600060608486031215611bb657600080fd5b611bbf84611add565b9250611bcd60208501611add565b929592945050506040919091013590565b60008060408385031215611bf157600080fd5b82359150611c0160208401611add565b90509250929050565b600060208284031215611c1c57600080fd5b61097182611add565b60008060408385031215611c3857600080fd5b50508035926020909101359150565b60008060408385031215611c5a57600080fd5b611c6383611add565b915060208301358015158114611c7857600080fd5b809150509250929050565b634e487b7160e01b600052604160045260246000fd5b60008060008060808587031215611caf57600080fd5b611cb885611add565b9350611cc660208601611add565b925060408501359150606085013567ffffffffffffffff811115611ce957600080fd5b8501601f81018713611cfa57600080fd5b803567ffffffffffffffff811115611d1457611d14611c83565b604051601f8201601f19908116603f0116810167ffffffffffffffff81118282101715611d4357611d43611c83565b604052818152828201602001891015611d5b57600080fd5b8160208401602083013760006020838301015280935050505092959194509250565b60008060408385031215611d9057600080fd5b611d9983611add565b9150611c0160208401611add565b600181811c90821680611dbb57607f821691505b602082108103611ddb57634e487b7160e01b600052602260045260246000fd5b50919050565b6020808252602e908201527f4552433732313a2063616c6c6572206973206e6f7420746f6b656e206f776e6560408201526d1c881b9bdc88185c1c1c9bdd995960921b606082015260800190565b601f8211156105a857806000526020600020601f840160051c81016020851015611e565750805b601f840160051c820191505b81811015611e765760008155600101611e62565b5050505050565b815167ffffffffffffffff811115611e9757611e97611c83565b611eab81611ea58454611da7565b84611e2f565b6020601f821160018114611edf5760008315611ec75750848201515b600019600385901b1c1916600184901b178455611e76565b600084815260208120601f198516915b82811015611f0f5787850151825560209485019460019092019101611eef565b5084821015611f2d5786840151600019600387901b60f8161c191681555b50505050600190811b01905550565b634e487b7160e01b600052601160045260246000fd5b818103818111156103d4576103d4611f3c565b808201808211156103d4576103d4611f3c565b60208082526032908201527f4552433732313a207472616e7366657220746f206e6f6e20455243373231526560408201527131b2b4bb32b91034b6b83632b6b2b73a32b960711b606082015260800190565b60008351611fdc818460208801611a61565b835190830190611ff0818360208801611a61565b01949350505050565b7f416363657373436f6e74726f6c3a206163636f756e7420000000000000000000815260008351612031816017850160208801611a61565b7001034b99036b4b9b9b4b733903937b6329607d1b6017918401918201528351612062816028840160208801611a61565b01602801949350505050565b634e487b7160e01b600052603260045260246000fd5b6001600160a01b03858116825284166020820152604081018390526080606082018190526000906120b790830184611a85565b9695505050505050565b6000602082840312156120d357600080fd5b815161097181611a2e565b80820281158282048414176103d4576103d4611f3c565b60008161210457612104611f3c565b506000190190565b634e487b7160e01b600052603160045260246000fd5b60006001820161213457612134611f3c565b5060010190565b634e487b7160e01b600052601260045260246000fd5b6000826121605761216061213b565b500490565b6000826121745761217461213b565b50069056fea26469706673582212208128849d4d90ea66504b36def4e66dd3a4842b90464ce10372a4c47ee8921cdc64736f6c634300081b0033496e697469616c697a61626c653a20636f6e7472616374206973206e6f7420699f2df0fed2c77648de5860a4cc508cd0818c85b8b8a1ab4ceeef8d981c8956a67164765a3c8bd2513bdfa0c90f1bee9606e920fbf2c9071f310263fbd818684ba264697066735822122091225b2dfa38c89ffb1d12e81a883392b5dd2d924aecea2040eded946c45e50764736f6c634300081b0033",
  "linkReferences": {},
  "deployedLinkReferences": {}
}